:020000040800F2
:10000000000002208D3700084D0A00084F0A000842
:10001000510A0008530A0008550A000800000000B1
:10002000000000000000000000000000570A000867
:10003000590A0008000000005B0A00085D0A000879
:10004000DD370008DD370008DD370008DD37000840
:10005000DD370008DD370008DD370008DD37000830
:10006000DD370008DD370008DD370008DD37000820
:10007000DD370008DD370008DD370008DD37000810
:10008000DD370008DD370008DD370008DD37000800
:10009000DD370008DD370008DD370008DD370008F0
:1000A000DD370008DD370008DD370008DD370008E0
:1000B000DD370008DD370008DD370008DD370008D0
:1000C000DD370008DD370008DD370008DD370008C0
:1000D000DD370008DD370008DD370008DD370008B0
:1000E000DD370008DD370008DD370008DD370008A0
:1000F000DD370008DD370008DD370008DD37000890
:10010000DD370008DD370008DD370008DD3700087F
:10011000DD370008DD370008DD370008DD3700086F
:10012000DD370008DD370008DD370008DD3700085F
:10013000DD370008DD370008DD370008DD3700084F
:10014000DD370008DD370008DD370008650A0008E4
:10015000DD370008DD370008DD370008DD3700082F
:10016000DD370008DD370008DD370008DD3700081F
:10017000DD370008DD370008DD370008000000002B
:08018000DD370008DD3700083F
:1001880010B5054C237833B9044B13B10448AFF3C9
:1001980000800123237010BD180200200000000019
:1001A800E839000808B5034B1BB103490348AFF30E
:1001B800008008BD000000001C020020E83900088B
:1001C80053B94AB9002908BF00281CBF4FF0FF31B6
:1001D8004FF0FF3000F072B9ADF1080C6DE904CEB4
:1001E80000F006F8DDF804E0DDE9022304B070470A
:1001F8002DE9F047089E04468846002B4BD18A42D9
:10020800154667D9B2FA82F24AB1C2F1200701FA5B
:1002180002F320FA07F7954047EA030894404FEAAB
:10022800154E230CB8FBFEF71FFA85FC0EFB17884A
:1002380043EA084307FB0CF1994209D9EB1807F187
:10024800FF3080F01B81994240F21881023F2B4415
:100258005B1AA4B2B3FBFEF00EFB103344EA03446E
:1002680000FB0CFCA44509D92C1900F1FF3380F0E0
:100278000781A44540F2048102382C4440EA074033
:10028800A4EB0C0400271EB1D4400023C6E90043A8
:100298003946BDE8F0878B4209D9002E00F0EB8083
:1002A8000027C6E9000138463946BDE8F087B3FAA9
:1002B80083F7002F47D18B4202D3824200F2FA80A3
:1002C800841A61EB030301209846002EE0D0C6E9AA
:1002D8000048DDE702B9FFDEB2FA82F2002A40F0F8
:1002E8008F80491B4FEA154E1FFA85F80127B1FB8D
:1002F800FEFC230C0EFB1C1143EA014308FB0CF126
:10030800994207D9EB180CF1FF3002D2994200F25A
:10031800CD808446591AA3B2B1FBFEF00EFB10142F
:1003280043EA044408FB00F8A04507D92C1900F15A
:10033800FF3302D2A04500F2B6801846A4EB0804A9
:1003480040EA0C409FE7C7F1200CBB4022FA0CFEA4
:100358004EEA030E01FA07F420FA0CF521FA0CF321
:100368004FEA1E482543B3FBF8F92C0C08FB193358
:100378001FFA8EFA44EA034309FB0AF49C4202FA84
:1003880007F200FA07F10BD91EEB030309F1FF305E
:1003980080F087809C4240F28480A9F1020973446E
:1003A8001B1BADB2B3FBF8F008FB103345EA03445E
:1003B80000FB0AFAA24508D91EEB040400F1FF333A
:1003C8006BD2A24569D90238744440EA0940A0FBBF
:1003D8000289A4EB0A044C45C2464B4654D351D07B
:1003E800002E69D0B1EB0A0564EB030404FA0CFC97
:1003F800FD40FC404CEA0505C6E90054002747E7E4
:10040800C2F1200320FA03F7954001FA02F021FA1D
:1004180003F34FEA154E3843010CB3FBFEF71FFAFE
:1004280085F80EFB173341EA034107FB08F38B42BB
:1004380004FA02F407D9691807F1FF3C2FD28B425E
:100448002DD9023F2944CB1A81B2B3FBFEF00EFB33
:10045800103341EA034100FB08F38B4207D96918BE
:1004680000F1FF3C17D28B4215D902382944C91A2A
:1004780040EA07473BE73746304609E70746E7E6DD
:100488001846FBE64145ABD2B8EB020A69EB0E020F
:1004980001381346A4E76046E9E7184695E767463A
:1004A800D1E781467CE702382C4447E7ACF1020CDF
:1004B8002B442FE7384608E73746E9E6704700BF80
:1004C80082B0002100910B4B1A6B42F080021A6334
:1004D8001A6B02F080020092009A01911A6B42F0A6
:1004E80001021A631B6B03F001030193019B02B025
:1004F800704700BF0038024030B595B03022002167
:1005080008A803F09DF90024039404940594069424
:10051800079401941C4B1A6C42F080521A641B6CAD
:1005280003F080530193019B0294184B1A6842F41C
:1005380080421A601B6803F480430293029B0123E4
:1005480008934FF48033099302250E954FF48003E6
:100558000F9304231093A823119312950723139341
:1005680008A801F0B3FD0F230393049505944FF4F5
:10057800A05306934FF480530793052103A802F074
:1005880007F815B030BD00BF0038024000700040C9
:1005980008B502F027FAFFF7AFFFFFF791FF00F069
:1005A80003F8FEE77047000008B500220F4910481D
:1005B80002F066FA70B90F490D4802F078FA60B98E
:1005C8000D490B4803F07EF850B9094802F076FA55
:1005D80048B908BDFFF7E6FFEDE7FFF7E3FFEFE7F0
:1005E800FFF7E0FFF1E7FFF7DDFFF2E7000000208B
:1005F800440200206C0000205000002030B589B073
:100608000023039304930593069307930368B3F1B8
:10061800A04F01D009B030BD00250195164C236BC1
:1006280043F001032363236B03F001030193019B50
:100638004FF4C053039302230493032306930A231E
:10064800079303A90D4802F059F8636B43F0800340
:1006580063630295636C43F480436364636C03F4DF
:1006680080430293029B2A462946432002F03CF924
:10067800432002F06DF9CDE7003802400000024047
:1006880008B500F57171D0F8040402F030FA08BD1D
:1006980008B5C1EBC10293000344D3F80822D0F88F
:1006A800040402F051FA08BD08B5C1EBC102930079
:1006B80003449A6CD0F8040402F08FFA08BD08B518
:1006C800D0F8040402F02CFB08BD10B50446C3683A
:1006D8002BB1022B0DD0FFF765FF012100E00021AF
:1006E800D4F8040402F00AFBD4F8040402F0DEFA99
:1006F80010BD0121F4E7000010B50446D0F8040449
:1007080002F0FFFA2268D2F8003E43F00103C2F873
:10071800003E236A23B1034A136943F006031361B9
:1007280010BD00BF00ED00E008B5D0F8040402F0E9
:10073800F1FA08BD08B5D0F8040402F001FB08BDC1
:1007480008B5D0F8040402F0F9FA08BD08B5D0F8E5
:10075800040402F0F7FA08BD08B5D0F8040402F062
:10076800F3FA08BD03780BB10020704710B50346B3
:100778001548C0F80434C3F898024FF0A04303604A
:10078800042343600222C260002303618261C361C3
:1007980003624362C362036300F0EEF980B90A4C56
:1007A8008021204600F025FF40220021204600F04D
:1007B800FCFE80220121204600F0F7FE002010BD3B
:1007C800FFF7F0FEEBE700BFE0040020D0F8983216
:1007D80011F0800F08D101F07F01C1EBC1018A003F
:1007E800134493F8FE01704701F07F01C1EBC1018A
:1007F8008A00134493F83E00704708B5D0F8980271
:1008080000F028FE08BD18B1022803D00220704766
:10081800002070470120704708B5D0F8980200F012
:100828003CFAFFF7F0FF08BD10B51C4613462246F8
:10083800D0F8980200F068FDFFF7E5FF10BD08B595
:10084800D0F8980200F0A1FDFFF7DDFF08BD08B55C
:10085800D0F8980200F031FEFFF7D5FF08BD08B5C3
:10086800D0F8980200F06AFEFFF7CDFF08BD08B582
:10087800D0F8980200F034FDFFF7C5FF08BD08B5B1
:10088800D0F8980200F0EFFDFFF7BDFF08BD08B5EE
:10089800D0F8980200F0B0FDFFF7B5FF08BD0000E2
:1008A80012230B80004870471C00002004230B8093
:1008B80000487047300000200023934216D230B41D
:1008C8000BE0373401F8134000015C0001340025C7
:1008D8000D550133DBB2934206D2040F092CF0D830
:1008E800303401F81340EFE730BC70477047000020
:1008F80038B50A4B186804331C6804331B68C018E1
:1009080000D138BD064D0822A91CFFF7D5FF0422E7
:1009180005F112012046FFF7CFFFF2E7107AFF1F1B
:100928003400002008B51A230B80FFF7E1FF0148C7
:1009380008BD00BF3400002008B50A4628B10549A3
:10094800054802F013FD034808BD0249024802F0B9
:100958000DFDF8E7E8080020303A000810B5044C0F
:100968000A462146034802F001FD204610BD00BF9B
:10097800E80800201C3A000808B50A4628B10549CD
:10098800054802F0F3FC034808BD0249024802F09A
:10099800EDFCF8E7E8080020003A000808B50A4628
:1009A80028B10549054802F0E1FC034808BD0249A1
:1009B800024802F0DBFCF8E7E80800200C3A0008DF
:1009C800002070470020704770B504460E46074D5A
:1009D8000146284602F085FE284602F0A2FE31882C
:1009E800204602F0B7FE002070BD00BF4402002080
:1009F80010B5064C00220649204602F06AFE054959
:100A0800204602F06EFE002010BD00BF4402002008
:100A1800E8120020E80A0020094BD3F89032D3F8F6
:100A280014320BB10120704710B50A460146044C38
:100A3800204602F04EFE204602F059FE10BD00BFCF
:100A4800440200207047FEE7FEE7FEE7FEE7704736
:100A58007047704708B501F0DFFF08BD08B50248C8
:100A680000F0EEF908BD00BFE004002082B00021CC
:100A780000910B4B5A6C42F480425A645A6C02F44F
:100A880080420092009A01911A6C42F080521A64D6
:100A98001B6C03F080530193019B02B0704700BFA9
:100AA800003802402DE9F04782B00768CA00521AA0
:100AB800930003445A6D1B6D9A4257D8B8469B1A47
:100AC800C1EBC104A2000244526C9A4200D31A46F8
:100AD8000C46064602F1030A4FEA9A0A16E009F1A3
:100AE800030A4FEA9A0AE3001B1B9D003544A96CD0
:100AF800337C00931FFA89F3E2B2384601F0ACF870
:100B0800AB6C4B44AB646B6D4B446B6508EB4413A7
:100B180003F510639B699BB2534513D3E3001B1B7A
:100B28009A003244516D136D99420BD253B15B1A3E
:100B3800C4EBC4018A003244D2F844909945CED31C
:100B48009946CCE7E3001B1B98000644326D736D91
:100B58009A420FD804F00F040121A140D7F8344875
:100B680024EA0104C7F83448002000E0012002B05C
:100B7800BDE8F0870020FAE7F0B58BB0002800F058
:100B88008A800446056890F8BD3323B3032384F8AC
:100B9800BD33EB6B13F4807F01D100232361206800
:100BA80000F00CFE254655F8107B6E460FCD0FC69B
:100BB8000FCD0FC695E8030086E80300231D0ECB72
:100BC800384600F039FD58B1022384F8BD330125B9
:100BD80028460BB0F0BD80F8BC33FFF70FFDD5E712
:100BE8000021206800F0F0FD002315E0D900C81AA4
:100BF80082002244012082F83D0082F83C30A2F8AD
:100C08004230002082F83F0050649064CA1A910074
:100C1800214408650133DBB26568AB42E6D30023A3
:100C280015E0D800C11A8A002244002182F8FD117B
:100C380082F8FC3182F8FF11C2F80412C2F80812D7
:100C4800C21A90002044C0F810120133DBB29D4252
:100C5800E7D8254655F8107B6E460FCD0FC60FCD49
:100C68000FC695E8030086E80300231D0ECB38461F
:100C780000F0F0FD054620B1022384F8BD330125BC
:100C8800A6E7002384F83830012384F8BD332068B0
:100C980001F08FF99CE701259AE7026890F8BC33C8
:100CA800012B19D010B5012380F8BC33836A012BBE
:100CB8000AD00446006801F070F9206800F078FD59
:100CC800002084F8BC0310BD8369012BF1D0936B1D
:100CD80043F480339363ECE70220704770B5054610
:100CE8000E460368196C03EB461303F53064A368DA
:100CF8000269012A0FD0354A914261D113F4004F9D
:100D08005AD113F0200F01D02023A360F1B2284656
:100D1800FFF7BEFC57E013F0080F14D02C4A91429D
:100D280005D913F4004F02D04FF40043A3602846BE
:100D3800FFF7A6FC05F571720121286801F096F904
:100D48000823A3603FE013F0200F2ED113F0280FE3
:100D580039D11F4A914202D913F4004F28D1F20029
:100D6800921B93002B44D3F804222169C1F312018A
:100D7800521AC3F81422D3F80412D3F808220A44EA
:100D8800C3F80822F1B22846FFF782FCDEB9C6EBA9
:100D9800C606B3002B44D3F81032A3B905F5717217
:100DA8000121286801F062F90DE02023A3600AE020
:100DB8004FF40043A36006E04FF40043A36002E051
:100DC800F1B2FFF765FC002070BD00BF0A31544F37
:100DD8000A30544F38B5044603681D6C03EB4111C3
:100DE80001F530618A680369012B0DD0124B9D42D1
:100DF80014D02046FFF744FC104B9D4202D92369CA
:100E0800012B12D0002038BD0C4B9D42F1D912F4B1
:100E1800004FEED04FF400438B60EAE712F4004F26
:100E2800E7D04FF400438B60E3E704F571720121CA
:100E3800206801F01BF9E5E70A31544F0A30544F96
:100E48002DE9F84F04460568284601F0EFF808B187
:100E5800BDE8F88F2F460646206801F0B6F800284E
:100E6800F6D0206801F0B1F810F0020F04D0226823
:100E7800536903F002035361206801F0A6F810F4E7
:100E8800002F74D1206801F0A0F810F4802F40F0F2
:100E9800C280206801F099F80028C0F234812068E7
:100EA80001F093F810F4006F0AD0D5F8083813F061
:100EB800010F40F042812268536903F400635361D3
:100EC800206801F082F810F4805F40F03A812068D1
:100ED80001F07BF810F4005F40F08D81206801F08C
:100EE80074F810F0100F14D02268936923F01003DF
:100EF80093612E6A06F00F07C6F34343022B00F0F6
:100F08009281062B00F0B0812268936943F01003A8
:100F18009361206801F059F810F0080F40F0B6818D
:100F2800206801F052F810F4801F40F0B881206862
:100F380001F04BF810F4001F40F0BB81206801F06D
:100F480044F810F0804F40F0BE81206801F03DF871
:100F580010F0040F3FF47CAF23685D6815F0040FB0
:100F680040F0BA81226853682B43536070E72068C9
:100F780001F02FF88046B14625E007EB491301221E
:100F8800C3F8082B49462046FFF7A8FE2BE0494640
:100F98002046FFF71FFF07EB49130822C3F8082B69
:100FA80024E007EB49132022C3F8082B1AF4005F4A
:100FB80005D007EB49134FF40052C3F8082B09F189
:100FC80001094FEA5808B8F1000F3FF45BAF18F079
:100FD800010FF4D05FFA89F1206801F00AF882461F
:100FE80010F0010FC9D11AF0080FD0D11AF0100F64
:100FF80004D007EB49131022C3F8082B1AF0200F6E
:10100800D4D02369012BCCD104F571720121206859
:1010180001F02CF8C5E7206800F0E3FF8046B146F0
:1010280031E04FEAC902A2EB090293002344596C4C
:101038009A6C0A449A6449E01AF0080F04D007EB46
:1010480049130822C3F808291AF0100F04D007EB37
:1010580049131022C3F808291AF0400F04D007EBEF
:1010680049134022C3F808291AF0020F04D007EBED
:1010780049130222C3F808291AF0800F3ED109F15A
:1010880001094FEA5808B8F1000F3FF402AF18F011
:10109800010FF4D05FFA89FB5946206800F0B2FFCF
:1010A800824610F0010FC7D009F00F03012101FAA1
:1010B80003F2D7F8343823EA0203C7F8343807EBC9
:1010C8004913C3F8081923698B42AAD05946204608
:1010D800FFF7EAFA2369012BAED1B9F1000FABD1C2
:1010E800C9EBC902930023441B6D002BA4D104F55E
:1010F80071720121206800F0B9FF9DE7494620463A
:10110800FFF7D0FCBBE7D5F8043823F00103C5F896
:10111800043894F8F433012B08D02046FFF704FB79
:101128002268536903F000435361B8E6002184F84C
:10113800F413204600F061FAF2E72046FFF7DCFAE4
:10114800B9E605F50068D8F8043023F00103C8F8BB
:1011580004301021206800F04FFB14E007EB461321
:101168004FF67F31C3F80819D3F8002922F400128A
:10117800C3F80029C3F8081BD3F8002B22F4001287
:10118800C3F8002B01366368B342E7D8D8F81C309F
:1011980043F00113C8F81C30236BEBB1D8F8843046
:1011A80043F00B03C8F88430D8F8443043F00B03FD
:1011B800C8F84430D5F8003823F4FE63C5F8003881
:1011C80004F57172217C206800F050FF2268536991
:1011D80003F4805353617AE6D8F8143043F400538B
:1011E80043F02B03C8F81430D8F8103043F00B0341
:1011F800C8F81030DEE7206800F01CFF206800F017
:10120800F9FBE060266801F073FA227B014630465C
:1012180000F058FA2046FFF758FA2268536903F499
:10122800005353615AE647F6F0731E423FF46CAE22
:101238004FEAC709A9EB07034FEA8308A044360918
:10124800C6F30A02D8F80812284600F027FEC6F3AB
:101258000A06D8F808323344C8F80832D8F81432E5
:101268001E44C8F814624FE6082204F57171284636
:1012780000F014FEC6F30A16FB00D91B8A002244AC
:10128800D2F814321E44C2F814623DE62046FFF735
:1012980016FA2268536903F00803536140E60021F7
:1012A8002046FFF74DFA2268536903F4801353610F
:1012B8003DE600212046FFF73DFA2268536903F412
:1012C800001353613AE62046FFF740FA2268536953
:1012D80003F08043536138E62046FFF73DFA41E6C4
:1012E80090F8BC33012B0DD010B50446012380F8CB
:1012F800BC3380F83810006800F03FFE002084F806
:10130800BC0310BD02207047F8B511F0800F28D13A
:1013180001F00F06F500AF1BBC00274604F5FC746E
:10132800044404343E460644002586F8FD5101F085
:101338000F012170A260E370627802B1E180022B94
:101348001ED090F8BC33012B1DD00546012380F830
:10135800BC332146006800F05EFB002085F8BC0322
:10136800F8BD01F00F06F500AF1BBC002746383466
:10137800044404343E460644012586F83D50D6E729
:1013880000232371DDE70220EAE738B511F0800F6A
:1013980021D101F00F05EA00541BA3001C4603F5F8
:1013A800FC730344043325460544002285F8FD21D7
:1013B80001F00F01197090F8BC23012A1AD00446D5
:1013C800012280F8BC231946006800F06FFB00205A
:1013D80084F8BC0338BD01F00F04E200151BAB0014
:1013E8001D463833034404332C460444012284F850
:1013F8003D20DDE70220EDE770B501F00F05EE00B6
:10140800711B8C0004F5FC740444211D761BB40088
:101418000444C4F80822C4F810320023C4F8143273
:1014280084F8FD3184F8FC510369012B06D065B1BD
:10143800DAB2006800F024FC002070BDC5EBC506D8
:10144800B4000444C4F80C22F1E7DAB2006800F0F2
:1014580075FBF1E701F00F01C1EBC1018B001844E6
:10146800D0F81402704770B501F00F05EE00711B3B
:101478008C0038340444211D761BB4000444A26453
:10148800236500236365012384F83D3084F83C50CC
:101498000369012B06D05DB1DAB2006800F0F0FBF9
:1014A800002070BDC5EBC506B4000444E264F2E751
:1014B800DAB2006800F042FBF2E738B501F00F0538
:1014C80043689D4236D811F0800F20D1CA00541AC3
:1014D800A3001C4603F5FC7303440433224602446C
:1014E800002182F8FD1101229A701D7090F8BC232A
:1014F800012A21D00446012280F8BC23194600683D
:1015080000F0E0FC7DB1002084F8BC0313E0EA00A1
:10151800511B8B001946383303440433014401221C
:1015280081F83D20DFE704F57172217C206800F026
:101538009DFDE8E7012038BD0220FCE710B501F069
:101548000F0443689C422CD811F0800F1DD1E30092
:101558001A1B91000A4601F5FC710144043102444A
:10156800002382F8FD3100238B700C7090F8BC3397
:10157800012B18D00446012380F8BC33006800F022
:10158800CEFC002084F8BC030CE0E3001A1B910099
:101598000A463831014404310244012382F83D30BF
:1015A800E1E7012010BD0220FCE730B40468606A5E
:1015B80029B10D46A36A00EB134000230CE040EA72
:1015C8000240A06212E003F1400104EB8101496886
:1015D80000EB11400133DBB2691E8B42F3D340EAC2
:1015E800024005F13F0104EB81014860002030BC56
:1015F8007047036859620020704770470023013321
:101608000C4A934211D80269002AF8DA036943F0B8
:101618000103036100230133064A934207D8026994
:1016280012F0010FF7D10020704703207047032004
:10163800704700BF400D030084B010B5044603A8EE
:1016480080E80E00089B012B1FD1A36B23F4803385
:10165800A363E36823F4840323F04003E360E368AF
:1016680023F44013E3600F9B012B09D02046FFF7BA
:10167800C5FF069B012B1BD0BDE8104004B0704786
:10168800E36843F48013E360F0E7E36843F0400362
:10169800E3602046FFF7B2FF0C9B23B9A36B43F42A
:1016A8008033A363E5E7A36B23F48033A363E0E708
:1016B800A36843F00603A360A36843F02003A36074
:1016C800DAE70000022A0AD00921C26822F470521F
:1016D800C260C36843EA8123C360002070472A4B75
:1016E8000B442A4A93423FD9294B0B44294A934237
:1016F8003CD9A1F57403A3F51053274A934237D96F
:10170800A1F18373A3F5E74302F5C332A0329342F4
:1017180030D9224B0B44224A93422DD9214B0B44FA
:1017280002F5922202F57872934227D91E4B0B4498
:1017380002F5C32202F52072934221D9A1F1B773B1
:10174800A3F5585302F5B71202F55872934219D906
:10175800164B0B4402F5122202F5F862934201D9A6
:101768000621B2E70721B0E70F21AEE70E21ACE76B
:101778000D21AAE70C21A8E70B21A6E70A21A4E777
:101788000921A2E70821A0E7405327FFFF340C00F6
:10179800401E1BFF3F420F007F4F120060B6E5FE60
:1017A8005FE3160000D3CEFEC05BB3FEE05459FEE3
:1017B800836843F00103836000207047836823F047
:1017C800010383600020704708B5C36823F0C04355
:1017D800C360012909D069B9C36843F08043C36075
:1017E800322001F02BF9002008BDC36843F00053F4
:1017F800C360F5E70120F7E7890141F020010161A5
:1018080000230133054A934205D8026912F0200FDC
:10181800F7D1002070470320704700BF400D030038
:101828001023036100230133054A934205D8026956
:1018380012F0100FF7D1002070470320704700BF47
:10184800400D0300D0F800381943C0F800180020F4
:101858007047000084B02DE9F041044607A880E8ED
:101868000E002546002306E003F1400204EB820245
:101878000021516001330E2BF6D9119BF3B9A36BEC
:1018880043F40013A363A36B23F40023A363A36BA4
:1018980023F48023A3630023C4F8003E04F5006604
:1018A800D4F80038C4F800380C9B012B14D1099BDC
:1018B8006BB900212046FFF7C5FF11E0236823F428
:1018C80000132360A36B43F40023A363E3E7012120
:1018D8002046FFF7B7FF03E003212046FFF7B2FFDA
:1018E80010212046FFF788FF804608B14FF0010815
:1018F8002046FFF795FF08B14FF001080023336138
:101908007361F3610AE0C3B94FF00060C2F80009DF
:1019180000220A614FF67F328A60013307999942A3
:1019280010D905EB431202F51061D2F8000900281E
:10193800E9DB0020C2F80009EAE74FF09040C2F85E
:101948000009E5E700230AE0BBB14FF09047C2F871
:10195800007B002202614FF67F3282600133994298
:1019680010D905EB431202F53060D2F8007B002F46
:10197800EADB0027C2F8007BEBE74FF00067C2F80C
:10198800007BE6E7336923F4807333610A9B012BFC
:101998001BD00022A2616FF0804262611BB9A3696B
:1019A80043F01003A361A269104B1343A3610D9B7D
:1019B8001BB1A36943F00803A361119B012B0DD050
:1019C8004046BDE8F04104B07047094A3263326BC3
:1019D80042F4803242F003023263DAE7A36943F04B
:1019E800804343F00403A361EAE700BF00383C806A
:1019F80000018000D0F8083813F0060307D0022B46
:101A080007D0062B01D00F20704702207047002016
:101A180070470220704770B40B784A78012A22D0A8
:101A2800D0F81C2803F00F060124B44042EA04420F
:101A3800C0F81C2800EB4310D0F8003B13F4004F0B
:101A48000ED1D0F8003B8A68C2F30A02C97842EA8C
:101A58008142134343F0805343F40043C0F8003BF2
:101A6800002070BC7047D0F81C4803F00F06B24045
:101A780092B22243C0F81C2800EB4310D0F800298A
:101A880012F4004FECD1D0F800298C68C4F30A0492
:101A9800C97844EA814444EA8353134343F08053AA
:101AA80043F40043C0F80039DAE7000070B40B785B
:101AB8004A78012A1FD0D0F83C5803F00F060124B9
:101AC80004FA06F625EA0645C0F83C58D0F81C5832
:101AD800097801F00F018C4025EA0444C0F81C483D
:101AE80000EB4310D0F8002B124B1340C0F8003B1A
:101AF800002070BC7047D0F83C6803F00F0402FA6D
:101B080004F4A4B226EA0404C0F83C48D0F81C48FF
:101B1800097801F00F018A4092B224EA0202C0F863
:101B28001C2800EB4310D0F80039034A1A40C0F8CB
:101B38000029DDE70078F3EF007833EC70B40B7818
:101B48004C78012C26D000EB431000F530631C695B
:101B5800E40CE4041C611C6924F0FF5424F4C01450
:101B68001C614C690CB18C684C611C6944F40024FC
:101B78001C611C698D68C5F312052C431C61012A80
:101B880065D0D0F8003B43F00443C0F8003B002088
:101B980070BC70474C696CBB00EB4314D4F8105907
:101BA80025F0FF5525F4C015C4F81059D4F810597C
:101BB80045F40025C4F81059D4F81059ED0CED047B
:101BC800C4F81059012A33D000EB4313D3F8002985
:101BD80042F00442C3F800294B69002BD7D0D0F853
:101BE8003428097801F00F040121A1400A43C0F804
:101BF8003428CCE700EB431404F510642569ED0C98
:101C0800ED042561256925F0FF5525F4C0152561EA
:101C18004E698D68AE4200D94D61256945F40025AD
:101C2800256125694E69C6F3120635432561C9E762
:101C38000A691AB100EB4311C1F8142900EB4310EB
:101C4800D0F8002942F00442C0F800299FE7CA688A
:101C5800002A96D05A6194E770B49DF80C4064B994
:101C680003339D0807E000EB023303F5805351F876
:101C7800046B1E600134AC42F5D3002070BC704781
:101C8800F0B583B00B784C78012C2BD000EB4313C4
:101C980003F530642569ED0CED042561256925F00F
:101CA800FF5525F4C01525614D69002D40F0C5800C
:101CB80025698E68C6F3120635432561256945F402
:101CC80000252561012A00F0CD80CA78012A00F09C
:101CD800CF80D3F8002B42F00442C3F8002B002039
:101CE80003B0F0BD4C6984BB00EB4314D4F8105921
:101CF80025F0FF5525F4C015C4F81059D4F810592B
:101D080045F40025C4F81059D4F81059ED0CED0429
:101D1800C4F81059012A4CD000EB4313D3F80049FA
:101D280044F00444C3F80049CC78012C6AD04B69CC
:101D3800002BD4D0D0F83428097801F00F04012101
:101D4800A1400A43C0F83428C9E700EB4314D4F88B
:101D58001059ED0CED04C4F81059D4F8105925F0B9
:101D6800FF5525F4C015C4F81059D4F810694D6909
:101D78008F683D44013DB5FBF7F5474F07EAC54578
:101D88003543C4F81059D4F810594E69C6F31206F1
:101D98003543C4F8105904F51064CD78012DB9D134
:101DA800256925F0C0452561256945F0005525615F
:101DB800B0E70A691AB100EB4314C4F81429CA78C9
:101DC800012A08D000EB4313D3F8002942F004425B
:101DD800C3F8002983E7D0F8082812F4807F08D1D7
:101DE80000EB4311D1F8002942F00052C1F8002954
:101DF800E8E700EB4311D1F8002942F08052C1F81E
:101E08000029DFE7D0F8084814F4807F0ED1D3F812
:101E1800004944F00054C3F8004914460B46C96809
:101E28001A789B8A0094FFF717FF58E7D3F8004900
:101E380044F08054C3F80049EFE78E683544013D0B
:101E4800B5FBF6F52669144F07EAC5473E432661F8
:101E580027698E68ADB206FB05F5C5F312053D434B
:101E680025612FE7CA68002A3FF42FAF62612CE78B
:101E7800D0F8082812F4807F06D1D3F8002B42F05E
:101E88000052C3F8002B24E7D3F8002B42F080520D
:101E9800C3F8002B1DE700BF0000F81F03329208AB
:101EA800002393420CD210B400F58054246841F802
:101EB800044B01339342F7D308465DF8044B70474F
:101EC800084670470B784A78012A14D000EB431073
:101ED800D0F8002B002A06DB2BB1D0F8003B23F00A
:101EE8008043C0F8003BD0F8003B43F40013C0F82F
:101EF800003B0020704700EB4310D0F80029002A6F
:101F080006DB2BB1D0F8003923F08043C0F8003944
:101F1800D0F8003943F40013C0F80039E9E70B782A
:101F28004A78012A0ED000EB4310D0F8003B23F486
:101F38000013C0F8003BCB78023BDBB2012B15D96C
:101F48000020704700EB4310D0F8003923F4001349
:101F5800C0F80039CB78023BDBB2012BF0D8D0F8BF
:101F6800003943F08053C0F80039E9E7D0F8003B66
:101F780043F08053C0F8003BE2E7D0F8003823F480
:101F8800FE63C0F80038D0F80038090101F4FE619A
:101F98000B43C0F800380020704708B5D0F8043863
:101FA80023F00203C0F80438032000F047FD0020A6
:101FB80008BD08B5D0F8043843F00203C0F8043867
:101FC800032000F03BFD002008BD426980691040F5
:101FD8007047D0F8183800F50060C0691840000C48
:101FE8007047D0F8183800F50060C069184080B212
:101FF800704700EB4111D1F8082B00F500604069EB
:102008001040704710B4D0F81048D0F8343801F0B8
:102018000F02D340DB01DBB2234300EB411000F594
:102028001060806818405DF8044B7047406900F004
:1020380001007047D0F8003923F4FF6323F0070349
:10204800C0F8003900F500639A6802F00602042A15
:1020580005D05A6842F480725A6000207047D0F860
:10206800002942F00302C0F80029F2E710B4046C1A
:10207800154B9C4203D9D0F8003B002B16DB0024FB
:10208800C0F8104BD0F8104B44F40024C0F8104BA3
:10209800D0F8104B44F01804C0F8104BD0F8104B8F
:1020A80044F0C044C0F8104B012903D000205DF86B
:1020B800044B7047C0F8142BD0F8003B43F0802342
:1020C800C0F8003BF2E700BF0A30544F002800F088
:1020D800E48170B582B00446036813F0010F3BD069
:1020E800A74B9B6803F00C03042B2CD0A44B9B68D4
:1020F80003F00C03082B21D06368B3F5803F4FD061
:10210800B3F5A02F52D09E4B1A6822F480321A6081
:102118001A6822F480221A606368002B50D000F0FD
:1021280087FC0546964B1B6813F4003F14D100F05A
:102138007FFC401B6428F5D90320B3E1904B5B6812
:1021480013F4800FD8D08E4B1B6813F4003F03D0D4
:102158006368002B00F0A381236813F0020F55D0A9
:10216800874B9B6813F00C0F3ED0854B9B6803F0A0
:102178000C03082B33D0E368002B68D0814B012275
:102188001A6000F055FC05467D4B1B6813F0020FE2
:1021980054D100F04DFC401B0228F5D9032081E101
:1021A800774A136843F480331360B5E7744B1A68B1
:1021B80042F480221A601A6842F480321A60ABE74F
:1021C80000F036FC05466E4B1B6813F4003FC3D085
:1021D80000F02EFC401B6428F5D9032062E1684B0F
:1021E8005B6813F4800FC6D1654B1B6813F0020FB0
:1021F80004D0E368012B01D0012053E1604A136841
:1022080023F0F803216943EAC1031360236813F03C
:10221800080F40D0636963B35B4B01221A6000F07A
:1022280007FC0546564B5B6F13F0020F33D100F0E5
:10223800FFFB401B0228F5D9032033E1504A1368FD
:1022480023F0F803216943EAC1031360DEE74D4B2D
:1022580000221A6000F0ECFB0546494B1B6813F09E
:10226800020FD3D000F0E4FB401B0228F5D903206D
:1022780018E1454B00221A6000F0DAFB0546404B96
:102288005B6F13F0020F06D000F0D2FB401B022850
:10229800F5D9032006E1236813F0040F79D0384BF1
:1022A8001B6C13F0805F33D100230193344B1A6CFD
:1022B80042F080521A641B6C03F080530193019B17
:1022C8000125324B1B6813F4807F23D0A368012BB0
:1022D80034D0052B38D02A4B1A6F22F001021A6726
:1022E8001A6F22F004021A67A368002B36D000F098
:1022F8009FFB0646224B1B6F13F0020F48D100F0DC
:1023080097FB801B41F288339842F3D90320C9E038
:102318000025D6E71D4A136843F48073136000F064
:1023280087FB0646194B1B6813F4807FCED100F05B
:102338007FFB801B0228F5D90320B3E0104A136FF6
:1023480043F001031367CFE70D4B1A6F42F0040205
:102358001A671A6F42F001021A67C5E700F068FBB6
:102368000646074B1B6F13F0020F11D000F060FBFD
:10237800801B41F288339842F3D9032092E000BFD2
:102388000038024000004742800E4742007000407B
:10239800EDB9A369002B00F08480454A926802F0E9
:1023A8000C02082A51D0022B17D0424B00221A6087
:1023B80000F03EFB04463E4B1B6813F0007F42D002
:1023C80000F036FB001B0228F5D903206AE0384AE2
:1023D800136C23F080531364DBE7364B00221A603A
:1023E80000F026FB0546324B1B6813F0007F06D031
:1023F80000F01EFB401B0228F5D9032052E0E369D8
:10240800226A1343626A43EA8213A26A5208013AB3
:1024180043EA0243E26A43EA0263254A5360254BD2
:1024280001221A6000F004FB0446214B1B6813F0DC
:10243800007F06D100F0FCFA001B0228F5D9032022
:1024480030E000202EE000202CE0012B2CD0184B8F
:102458009B6803F48001E269914201D0012021E0E8
:1024680003F03F02216A8A4201D001201AE0616A22
:1024780047F6C0721A408A4201D0012012E003F4E4
:102488004032A16A8A4201D001200BE003F0706358
:10249800E26A93420AD0012004E00120704701203B
:1024A80000E0002002B070BD0120FBE70020F9E742
:1024B8000038024060004742324B9B6803F00C032F
:1024C800042B5CD0082B01D02F4870472DE9F04B26
:1024D8002C4B5A6802F03F025B6813F4800F2BD034
:1024E800284B5B68C3F388131E4600275C01002550
:1024F800E41A65EB0705A90141EA9461A001001BF4
:1025080061EB0501CB0043EA5073C400A01943EB0B
:1025180007014B0243EAD0534402204619460023E0
:10252800FDF74EFE174B5B68C3F3014301335B00B5
:10253800B0FBF3F0BDE8F08B124B5B68C3F3881374
:102548001E4600275C010025E41A65EB0705A90172
:1025580041EA9461A001001B61EB0501CB0043EA4D
:102568005073C400A01943EB07018B0243EA905350
:102578008402204619460023FDF722FED2E70348CD
:10258800704700BF003802400024F40000127A00AF
:10259800002800F09E8070B50446504B1B6803F07D
:1025A8000F038B4209D2CBB24C4A1370136803F065
:1025B8000F038B4201D0012070BD236813F0020F76
:1025C80017D013F0040F04D0454A936843F4E0533E
:1025D8009360236813F0080F04D0414A936843F4CA
:1025E800604393603E4A936823F0F003A068034376
:1025F80093600D46236813F0010F32D06368012BF6
:1026080021D09A1E012A25D9354A126812F0020FE4
:1026180061D033498A6822F0030213438B6000F0CB
:1026280007FA06462E4B9B6803F00C036268B3EB6F
:10263800820F16D000F0FCF9801B41F288339842D3
:10264800F0D90320B8E7264A126812F4003FE0D117
:102658000120B1E7224A126812F0007FD9D1012087
:10266800AAE71E4B1B6803F00F03AB4209D9EAB275
:102678001A4B1A701B6803F00F03AB4201D00120FC
:102688009AE7236813F0040F06D0154A936823F4D9
:10269800E053E1680B439360236813F0080F07D0F9
:1026A8000F4A936823F46043216943EAC1039360A6
:1026B800FFF702FF0A4B9B68C3F30313094AD35C75
:1026C800D840094B1860094B186800F065F90020DC
:1026D80072E70120704701206EE700BF003C02400E
:1026E80000380240483A00086800002064000020D2
:1026F800014B1868704700BF6800002000230F2BAB
:1027080000F2D780F0B583B039E0072200E000225C
:10271800AA403A430234674D45F82420664A1468B3
:10272800F24302EA04054F6817F4803F01D046EAF5
:102738000405614C2560646802EA04054F6817F4D3
:10274800003F01D046EA04055B4C6560A46802EAD4
:1027580004054F6817F4801F01D046EA0405564C5B
:10276800A560E46822404D6815F4001F01D046EAD0
:102778000402514CE26001330F2B00F298800122D1
:102788009A400C6804EA0206B242F4D14C68651E0D
:10279800012D03D9112C01D0122C12D185685F00AC
:1027A8000324BC4025EA0405CC68BC402C43846063
:1027B800456825EA02054C68C4F300129A402A438A
:1027C8004260C4685F000322BA40D24314408D6857
:1027D800BD402543C5604C68022C01D0122C13D192
:1027E800DD08083550F825E003F007044FEA840CAB
:1027F8000F2404FA0CF42EEA040E0C6904FA0CF403
:1028080044EA0E0440F82540046822404C6804F06D
:102818000304BC40224302604A6812F0805FAAD0D9
:1028280000220192254A546C44F480445464526C4A
:1028380002F480420192019A9C08A51C1D4A52F894
:10284800257003F0030295000F22AA4027EA020729
:102858001B4A90423FF45BAF02F5806290421AD067
:1028680002F58062904218D002F58062904216D03C
:1028780002F58062904214D002F58062904212D034
:1028880002F58062904210D002F5806290423FF4D7
:102898003CAF08223CE701223AE7022238E703224C
:1028A80036E7042234E7052232E7062230E703B090
:1028B800F0BD704700380140003C0140003802403C
:1028C80000000240074AD36823F4E0631B041B0C92
:1028D800000200F4E060184340F0BF6040F40030AC
:1028E800D060704700ED00E030B4174BDB68C3F3ED
:1028F8000223C3F10704042C28BF04241D1D062D40
:1029080018D9033B4FF0FF3505FA04F421EA040116
:10291800994005FA03F322EA0303194300280BDB65
:102928000901C9B200F1604000F5614080F8001368
:1029380030BC70470023E5E700F00F000901C9B279
:10294800024B1954F4E700BF00ED00E014ED00E07D
:10295800002807DB00F01F02400901239340024AC8
:1029680042F82030704700BF00E100E00138B0F1C4
:10297800807F0AD2064B5860064AF02182F823105D
:102988000020986007221A6070470120704700BF36
:1029980010E000E000ED00E010B504460E4B18789A
:1029A8004FF47A73B3FBF0F30C4A1068B0FBF3F002
:1029B800FFF7DCFF68B90F2C01D901200AE00022DB
:1029C80021464FF0FF30FFF78FFF054B1C600020BA
:1029D80000E0012010BD00BF60000020680000205A
:1029E8006400002008B50B4B1A6842F400721A60A4
:1029F8001A6842F480621A601A6842F480721A6097
:102A08000320FFF75FFF0020FFF7C6FFFEF72EF851
:102A1800002008BD003C0240034A1168034B1B78A4
:102A28000B441360704700BFE81A002060000020C4
:102A3800014B1868704700BFE81A002038B50446F3
:102A4800FFF7F6FF0546B4F1FF3F02D0044B1B78B1
:102A58001C44FFF7EDFF401BA042FAD338BD00BF6E
:102A680060000020054BD3F8882042F47002C3F8B8
:102A780088204FF000629A60704700BF00ED00E0C8
:102A880098B108B50346D0F88C0210B10020C3F8FD
:102A98008C0209B1C3F888121846012380F87432F1
:102AA8000270FDF75FFE002008BD0220704719B1D3
:102AB800C0F88C12002070470220704708B5FDF757
:102AC800ABFE002008BD08B5D0F88C3233B11B68C6
:102AD800984708B9002008BD0220FCE70220FAE761
:102AE80008B5D0F88C325B689847002008BD38B527
:102AF800044600F52075284600F045F90123C4F87E
:102B08006C32B4F88632C4F8703294F8801201F04E
:102B18001F03012B0ED03BB1022B10D001F0800116
:102B28002046FDF794FE03E02946204600F0B5FA5A
:102B3800002038BD2946204600F0E3FAF8E7294688
:102B4800204600F00EFBF3E738B50446A1BB10465B
:102B5800D4F86C32032B03D0052B24D0002037E0A7
:102B6800D4F84C31D4F8502193420DD99B1AC4F8AB
:102B78004C319A4206D99AB20146204600F036FCFA
:102B8800002025E092B2F7E7D4F88C321B692BB10C
:102B980094F87422032A01D120469847204600F071
:102BA8002DFC002014E00025C4F86C52294620466C
:102BB800FDF74DFE28460BE00A46D0F88C329B699B
:102BC8003BB190F87412032905D1114698470020AB
:102BD80038BD0220FCE70220FAE710B504460029B8
:102BE80053D11046D4F86C32022B0CD0042B00D0F1
:102BF8001BB980212046FDF72AFE94F87832012B74
:102C08003FD000204DE0236A626A93421DD8E169F3
:102C1800B1FBF2F302FB13132BB98A4203D8D4F8A1
:102C2800703299421FD3D4F88C32DB682BB194F8F8
:102C38007422032A01D12046984780212046FDF7B7
:102C480006FE204600F0E5FBD7E79A1A226292B208
:102C58000146204600F0B3FB00231A4619462046D9
:102C6800FDF715FEC9E700221146204600F0A7FB34
:102C78000021C4F870120B460A462046FDF707FEED
:102C8800BBE7002084F878020BE00A46D0F88C32C3
:102C98005B693BB190F87412032905D11146984736
:102CA800002010BD0220FCE70220FAE770B50446B8
:102CB800402300221146FDF7B7FD0125C4F8445111
:102CC8004026C4F850613346002280212046FDF793
:102CD800ABFDA561666284F874520023C4F86C32B7
:102CE8006360C4F87C32D4F890322BB1D4F88C32BB
:102CF8005B68002120469847002070BD01740020C1
:102D0800704790F8743280F87532042380F8743272
:102D18000020704790F8753280F8743200207047B0
:102D280008B590F87432032B01D0002008BDD0F804
:102D38008C32DB69002BF8D09847F6E70020704703
:102D4800002070470020704708B5012280F87422DF
:102D5800D0F88C22526801799047002008BD0023E2
:102D680002E00133DBB201300278002AF9D11846BB
:102D7800704708B54B88012B00D008BDC0F87C32DD
:102D880000F03CFBF9E70B7803704B7843708B78C5
:102D9800CA7803EB022343800B794A7903EB0223B9
:102DA80083808B79CA7903EB0223C380704710B5FF
:102DB80004468021FDF74BFD00212046FDF747FD25
:102DC80010BD30B583B005460C464A88130A013B4E
:102DD800062B00F28480DFE803F004162A8282665C
:102DE8007300D0F888321B680DF10601007C984703
:102DF800BDF8062012B1E388002B74D1E388002BBC
:102E08007BD003B030BD037C43B9D0F88C329B6AC9
:102E18000DF10600984702234370E9E7D0F88C3299
:102E2800DB6A0DF10600984702234370E0E7D2B24F
:102E3800052A34D8DFE802F0030B131B232BD0F844
:102E480088325B680DF10601007C9847D0E7D0F81E
:102E580088329B680DF10601007C9847C8E7D0F8D6
:102E68008832DB680DF10601007C9847C0E7D0F88E
:102E780088321B690DF10601007C9847B8E7D0F845
:102E880088325B690DF10601007C9847B0E7D0F8FD
:102E980088329B690DF10601007C9847A8E7214616
:102EA800FFF785FFADE7037C33B9D0F88C325B6B55
:102EB8000DF1060098479BE72146FFF778FFA0E74A
:102EC800037C43B9D0F88C321B6B0DF10600984790
:102ED800072343708CE72146FFF769FF91E72146F6
:102EE800FFF765FF8DE79A4228BF1A46ADF806201E
:102EF8000146284600F056FA80E7284600F07EFA98
:102F08007FE738B504468B88F3B9CB88E3B94B889B
:102F18007F2B19D803F07F0590F87432032B0CD05F
:102F280080F876522946FDF7A2FC204600F066FAA2
:102F380035B1022384F8743209E0FFF738FF06E060
:102F4800012384F8743202E02046FFF730FF38BDD1
:102F580038B504460D468978284B197001290ED8D2
:102F680090F87432022B0ED0032B21D02946FFF79C
:102F78001EFF224B19782046FFF7B2FD02E02946D2
:102F8800FFF715FF38BD81B14160032380F8743223
:102F9800FFF799FD022803D0204600F02FFAF1E749
:102FA80029462046FFF703FFECE700F027FAE9E798
:102FB80089B1436899421DD0D9B2FFF791FD0F4BF3
:102FC800197861602046FFF77EFD02280DD0204663
:102FD80000F014FAD6E7022380F874324160FFF754
:102FE8007FFD204600F00AFACCE729462046FFF785
:102FF800DEFEC7E700F002FAC4E700BF3402002093
:1030080008B5CB88012B0BD190F874329BB1022BF9
:1030180009D9032B0FD10122011D00F0C3F901E0EA
:10302800FFF7C5FE08BD0146002341F8083F01220D
:1030380000F0B8F9F6E7FFF7BAFEF3E708B590F83D
:103048007432013B022B12D8CB88022B0CD10123FE
:10305800C360D0F87C320BB10323C360022200F1B5
:103068000C0100F09FF908BDFFF7A1FEFBE7FFF791
:103078009EFEF8E708B590F87432013B022B09D898
:103088004B88012B00D008BD0023C0F87C3200F02B
:10309800B5F9F8E7FFF78BFEF5E708B50B7803F00D
:1030A8006003202B05D0402B03D043B1FFF77FFEF0
:1030B80003E0D0F88C329B689847002008BD4B7815
:1030C800092B1BD8DFE803F011171A141A08051A80
:1030D8000E0BFFF776FEF0E7FFF713FFEDE7FFF7BC
:1030E80037FFEAE7FFF78CFFE7E7FFF7A7FFE4E71B
:1030F800FFF73FFEE1E7FFF7BDFFDEE7FFF757FE0B
:10310800DBE738B505460C460B7803F06003202B47
:1031180006D0402B04D01BB1FFF749FE002038BD74
:1031280095F87432013B022B16D82379012B0ED85F
:10313800D5F88C329B68214628469847E388002BAF
:10314800ECD10028EAD1284600F058F9E6E72146F4
:103158002846FFF72CFEE1E721462846FFF727FE21
:10316800DCE738B504468A880B7803F06003202B27
:1031780008D0D0B2402B05D05BB12046FFF717FE30
:10318800002005E0D4F88C329B6820469847002040
:1031980038BD202B05D1D4F88C329B68204698473F
:1031A800F6E74B78012B32D0002B5ED0032B40F092
:1031B800D68094F87432022B06D0032B16D0204602
:1031C800FFF7F5FD0020E3E708B1802804D1204689
:1031D800FFF7EDFD0020DBE701462046FDF737FB52
:1031E80080212046FDF733FB0020D1E74B8823B927
:1031F80018B1802801D0CB8823B1204600F0FEF812
:103208000020C5E701462046FDF721FBF5E794F8C5
:103218007432022B06D0032B16D02046FFF7C7FDC9
:103228000020B5E708B1802804D12046FFF7BFFD8C
:103238000020ADE701462046FDF709FB8021204626
:10324800FDF705FB0020A3E74B88002B40F08C809E
:1032580010F07F0F04D1204600F0D0F8002097E747
:1032680001462046FDF7FBFAF5E794F87432022B85
:1032780006D0032B29D02046FFF799FD002087E7C9
:1032880008B1802812D112F0800F14D100F07F000D
:1032980000EB8000830003F5A073E11800250D60A2
:1032A8000222204600F07EF8284671E72046FFF704
:1032B8007EFD00206CE700F07F0000EB80008300BB
:1032C80003F1100121440431E8E752B2002A1EDB61
:1032D80000F00F0303EB83039D002544D5F8443128
:1032E8001BB3002A26DB00F07F0202EB8202930068
:1032F80003F5A073E51808B1802825D100232B60B9
:1033080002222946204600F04DF8002040E700F050
:103318000F0303EB83039D002544AB69002BE0D129
:103328002046FFF744FD002032E72046FFF73FFD27
:1033380000202DE700F07F0202EB8202930003F1E8
:10334800100525440435D6E701462046FDF73EFA28
:1033580010B101232B60D3E700232B60D0E7204670
:10336800FFF725FD002013E7002011E7C8B170B56D
:103378000D4616460446FFF7F2FC01304000308047
:10338800287003236B70022307E001345A1CD2B261
:10339800E9540233DBB20021A95421780029F4D181
:1033A80070BD704710B513460222C0F86C22C36185
:1033B80003620A460021FDF762FA002010BD08B535
:1033C80013460A460021FDF75AFA002008BD10B539
:1033D80013460322C0F86C22C0F84831C0F84C31BB
:1033E8000A460021FDF753FA002010BD08B5134620
:1033F8000A460021FDF74BFA002008BD08B5042352
:10340800C0F86C3200231A461946FDF738FA002036
:1034180008BD08B50523C0F86C3200231A461946C2
:10342800FDF735FA002008BD10B5D0F89042D0F865
:1034380094325BB194F80002FF2807D09B6894F897
:10344800012221469847FF2384F80032002010BD4E
:103458004323038000487047A400002043230380CF
:1034680000487047E8000020432303800048704765
:10347800380100200A230380004870472C010020EF
:1034880038B50446D0F89052FDF7B7F9C5F80C02E4
:10349800D4F890324BB1D4F89432DB6805F5037157
:1034A800D5F804029847002038BD0220FCE770B523
:1034B800D0F89022D0F89852FAB101EB8104A30019
:1034C8000344DB694BB1C1EBC106B40025446D6C04
:1034D800B3FBF5F405FB14331BB10020C2F814024A
:1034E80070BD01EB8102930003440024DC61234694
:1034F8002246FDF7C4F92046F2E70220F0E770B54E
:1035080082B005460C46D0F8906200238DF807304B
:10351800ADF804300B7813F0600227D0202A56D17A
:10352800CA883AB9D0F894329B68002248789847FC
:1035380000204FE013F0800F0CD0D0F894329B6835
:10354800314660789847E28831462846FFF72AFFD7
:1035580000203FE04B7886F800328B7986F80132FC
:10356800CA883146FFF733FF002033E04B780A2B37
:1035780014D00B2B21D01BB1FFF719FC022029E036
:1035880090F87432032B05D1022201A9FFF70AFF34
:1035980000201FE0FFF70BFC02201BE090F87432BC
:1035A800032B06D101220DF10701FFF7FBFE0020D6
:1035B80010E0FFF7FCFB02200CE090F87432032BBC
:1035C80001D1002006E0FFF7F2FB022002E0FFF73E
:1035D800EEFB022002B070BD38B504468121FDF72C
:1035E8002EF90025E56201212046FDF728F9C4F8E7
:1035F800585182212046FDF722F92564D4F89032EB
:103608004BB1D4F894325B689847D4F8900200F034
:103618000FF9C4F89052002038BD38B50446037C31
:10362800A3BB4FF4007302228121FDF7FDF80125A9
:10363800E5624FF40073022229462046FDF7F4F8AC
:10364800C4F858510823032282212046FDF7ECF8DC
:10365800012323644FF4077000F0E2F80546C4F82C
:10366800900268B3D4F894321B6898470023C5F8D1
:103678001432C5F81832237CC3B14023D5F804228C
:1036880001212046FDF703F9002038BD402302221E
:103698008121FDF7C9F80125E56240230222294668
:1036A8002046FDF7C1F8C4F85851CBE74FF4007332
:1036B800D5F8042201212046FDF7E9F80020E4E7C7
:1036C8000120E2E719B1C0F89412002070470220E7
:1036D8007047D0F89032C3F80812C3F810220020BF
:1036E8007047D0F89032C3F8041200207047D0F821
:1036F8009022A2B108B5D2F814320BB1012008BD4E
:103708000123C2F81432D2F810320363B2F810322F
:10371800D2F808228121FDF7B2F80020EFE7022055
:103728007047D0F890229AB108B5037C3BB140238A
:10373800D2F804220121FDF7AAF8002008BD4FF4B1
:103748000073D2F804220121FDF7A1F80020F5E763
:103758000220704708B50378022B03D0042B07D04A
:10376800002004E004210548FDF756F9012008BDB2
:1037780038210348FDF750F90120F8E7583A0008C6
:103788007C010020DFF834D0002103E00C4B5B58AB
:10379800435004310B480C4B42189A42F6D30B4A5B
:1037A80002E0002342F8043B094B9A42F9D3FFF7A1
:1037B80059F900F011F8FCF7EBFE70470000022001
:1037C800703A0008000000201802002018020020AB
:1037D800F01A0020FEE7000070B50D4E0D4CA41B3A
:1037E800A4100025A54209D10B4E0C4C00F0F8F8A6
:1037F800A41BA4100025A54205D170BD56F825309C
:1038080098470135EEE756F8253098470135F2E735
:10381800683A0008683A0008683A00086C3A0008F4
:10382800024B0146186800F061B800BFB4010020DF
:10383800024B0146186800F00BB800BFB401002025
:1038480002440346934200D1704703F8011BF9E78D
:1038580038B50546002945D051F8043C0C1F002B0B
:10386800B8BFE41800F0ACF81F4A1368104633B923
:10387800636014602846BDE8384000F0A2B8A3424F
:103888000CD921686218934204BF1A685B686360A8
:1038980004BF521822600460ECE713465A680AB164
:1038A800A242FAD919685818A0420BD120680144DD
:1038B800581882421960DDD1106852685A60014474
:1038C8001960D7E702D90C232B60D3E720682118A9
:1038D8008A4204BF11685268626004BF09182160F7
:1038E8005C60C7E738BD00BF3802002070B5CD1C4A
:1038F80025F0030508350C2D38BF0C25002D06468C
:1039080001DBA94203D90C233360002070BD00F00D
:1039180057F8214A1468214691B9204C23681BB9ED
:10392800304600F03DF820602946304600F038F86F
:10393800431C24D10C233360304600F042F8E4E7FE
:103948000B685B1B18D40B2B0FD90B60CD50CC1810
:10395800304600F036F804F10B00231D20F0070074
:10396800C31AD3D05A42E250D0E78C424B6816BFF4
:10397800636013600C46EBE70C464968CCE7C41C4F
:1039880024F00304A04205D0211A304600F008F8BC
:103998000130CFD02560DBE7380200203C02002050
:1039A80038B5064C002305460846236000F00AF89F
:1039B800431C02D1236803B12B6038BDEC1A0020E8
:1039C80070477047044A05491368002B08BF0B4627
:1039D800184410601846704740020020F01A002072
:1039E800F8B500BFF8BC08BC9E467047F8B500BFE4
:0839F800F8BC08BC9E467047B4
:103A000043444320436F6E6669670000434443208C
:103A1000496E7465726661636500000053544D69B8
:103A200063726F656C656374726F6E6963730000B7
:103A300053544D3332205669727475616C20436F54
:103A40006D506F7274000000000000000000000064
:103A5000010203040607080931414C53000000002D
:083A600098C7FF7F0100000080
:043A6800AD010008A4
:043A6C0089010008C4
:103A7000A9080008B5080008650900084109000800
:103A80002D09000881090008A5090008120100029B
:103A900002020040830440570002010203010000BB
:103AA000040309041A0300000000000000000000E5
:103AB0000000000000000000000000000000000006
:103AC000F9090008C9090008CD090008D109000852
:103AD00001000000100000000024F400233600085C
:103AE000E135000807350008000000003134000807
:103AF000B73400088934000800000000000000000E
:103B000000000000653400085934000871340008D2
:103B10007D34000809024300020100C0320904009C
:103B2000000102020100052400100105240100012A
:103B30000424020205240600010705820308001080
:103B400009040100020A000000070501024000000C
:103B5000070581024000000009024300020100C085
:103B600032090400000102020100052400100105D1
:103B70002401000104240202052406000107058235
:103B80000308001009040100020A000000070501F3
:103B90000200020007058102000200000A0600027E
:103BA000000000400100000009074300020104C0BA
:103BB0003209040000010202010005240010010581
:103BC00024010001042402020524060001070582E5
:103BD0000308001009040100020A000000070501A3
:103BE000024000000705810240000000014D6561B0
:103BF000737572696E6720436F6D706C6578000233
:103C00004E6F46504741203A28000356657279208E
:103C100062657461002301312D00210000700040B5
:103C200008410200B8010020000000000000000070
:103C30000000000000000000000000000000000084
:103C40000000000000000000000000000000000074
:103C50000000000000000000000000000000000064
:103C60000000000000000000000000000000000054
:103C70000000000000000000000000000000000044
:083C800000000000000000003C
:040000050800378D2B
:00000001FF
