:020000040800F2
:10000000000002205D6800080D1100081B110008A7
:1000100021110008271100082D1100080000000020
:100020000000000000000000000000003311000884
:1000300041110008000000004F1100085D11000888
:10004000AD680008AD680008AD680008AD6800083C
:10005000AD680008AD6800087D110008891100082E
:1000600095110008A1110008AD110008AD68000845
:10007000AD680008AD680008AD680008AD6800080C
:10008000AD680008AD680008AD680008AD680008FC
:10009000AD680008AD680008AD680008B911000837
:1000A000AD680008AD680008AD680008AD680008DC
:1000B000AD680008AD680008AD680008AD680008CC
:1000C000AD680008AD680008AD680008AD680008BC
:1000D000AD680008AD680008AD680008AD680008AC
:1000E000AD680008AD680008AD680008AD6800089C
:1000F0000D12000869120008AD680008AD6800081C
:10010000AD680008AD680008AD680008AD6800087B
:10011000AD680008AD680008AD680008AD6800086B
:10012000AD680008AD680008AD680008AD6800085B
:10013000AD680008AD680008AD680008AD6800084B
:10014000AD680008AD680008AD68000869110008D6
:10015000AD680008AD680008AD680008AD6800082B
:10016000AD680008AD680008AD680008AD6800081B
:10017000AD680008AD680008AD6800080000000028
:08018000AD680008AD6800083D
:1001880010B5054C237833B9044B13B10448AFF3C9
:1001980000800123237010BD24020020000000000D
:1001A800B86A000808B5034B1BB103490348AFF30D
:1001B800008008BD0000000028020020B86A00087E
:1001C80053B94AB9002908BF00281CBF4FF0FF31B6
:1001D8004FF0FF3000F072B9ADF1080C6DE904CEB4
:1001E80000F006F8DDF804E0DDE9022304B070470A
:1001F8002DE9F047089E04468846002B4BD18A42D9
:10020800154667D9B2FA82F24AB1C2F1200701FA5B
:1002180002F320FA07F7954047EA030894404FEAAB
:10022800154E230CB8FBFEF71FFA85FC0EFB17884A
:1002380043EA084307FB0CF1994209D9EB1807F187
:10024800FF3080F01B81994240F21881023F2B4415
:100258005B1AA4B2B3FBFEF00EFB103344EA03446E
:1002680000FB0CFCA44509D92C1900F1FF3380F0E0
:100278000781A44540F2048102382C4440EA074033
:10028800A4EB0C0400271EB1D4400023C6E90043A8
:100298003946BDE8F0878B4209D9002E00F0EB8083
:1002A8000027C6E9000138463946BDE8F087B3FAA9
:1002B80083F7002F47D18B4202D3824200F2FA80A3
:1002C800841A61EB030301209846002EE0D0C6E9AA
:1002D8000048DDE702B9FFDEB2FA82F2002A40F0F8
:1002E8008F80491B4FEA154E1FFA85F80127B1FB8D
:1002F800FEFC230C0EFB1C1143EA014308FB0CF126
:10030800994207D9EB180CF1FF3002D2994200F25A
:10031800CD808446591AA3B2B1FBFEF00EFB10142F
:1003280043EA044408FB00F8A04507D92C1900F15A
:10033800FF3302D2A04500F2B6801846A4EB0804A9
:1003480040EA0C409FE7C7F1200CBB4022FA0CFEA4
:100358004EEA030E01FA07F420FA0CF521FA0CF321
:100368004FEA1E482543B3FBF8F92C0C08FB193358
:100378001FFA8EFA44EA034309FB0AF49C4202FA84
:1003880007F200FA07F10BD91EEB030309F1FF305E
:1003980080F087809C4240F28480A9F1020973446E
:1003A8001B1BADB2B3FBF8F008FB103345EA03445E
:1003B80000FB0AFAA24508D91EEB040400F1FF333A
:1003C8006BD2A24569D90238744440EA0940A0FBBF
:1003D8000289A4EB0A044C45C2464B4654D351D07B
:1003E800002E69D0B1EB0A0564EB030404FA0CFC97
:1003F800FD40FC404CEA0505C6E90054002747E7E4
:10040800C2F1200320FA03F7954001FA02F021FA1D
:1004180003F34FEA154E3843010CB3FBFEF71FFAFE
:1004280085F80EFB173341EA034107FB08F38B42BB
:1004380004FA02F407D9691807F1FF3C2FD28B425E
:100448002DD9023F2944CB1A81B2B3FBFEF00EFB33
:10045800103341EA034100FB08F38B4207D96918BE
:1004680000F1FF3C17D28B4215D902382944C91A2A
:1004780040EA07473BE73746304609E70746E7E6DD
:100488001846FBE64145ABD2B8EB020A69EB0E020F
:1004980001381346A4E76046E9E7184695E767463A
:1004A800D1E781467CE702382C4447E7ACF1020CDF
:1004B8002B442FE7384608E73746E9E6704700BF80
:1004C80080B500AF04F084FA00F00CF800F09CF856
:1004D800642004F0EFFA00F06FF800F0CBF830BFBA
:1004E800FDE7000080B594B000AF07F1200330228B
:1004F8000021184606F00CFA07F10C0300221A60D6
:100508005A609A60DA601A610023BB60284B1B6C42
:10051800274A43F080531364254B1B6C03F0805328
:10052800BB60BB6800237B60224B1B68214A43F4F5
:10053800804313601F4B1B6803F480437B607B6818
:1005480001233B624FF480337B620223BB634FF489
:100558008003FB6304233B64A8237B640223BB64FE
:100568000723FB6407F12003184603F01BFB03462F
:10057800002B01D000F076F80F23FB6002233B61CB
:1005880000237B614FF4A053BB614FF48053FB61A0
:1005980007F10C030521184603F074FD0346002BF0
:1005A80001D000F05FF800BF5037BD4680BD00BFE6
:1005B800003802400070004080B483B000AF0023D0
:1005C8007B60104B1B6B0F4A43F0800313630D4B8A
:1005D8001B6B03F080037B607B6800233B60094B47
:1005E8001B6B084A43F001031363064B1B6B03F0B4
:1005F80001033B603B6800BF0C37BD465DF8047BD8
:10060800704700BF0038024080B586B000AF0023B5
:100618003B60124B1B6B114A43F0080313630F4BEB
:100628001B6B03F008033B603B683B1D00221A600C
:100638005A609A60DA601A614FF6FF737B60002394
:10064800BB600223FB6003233B613B1D1946044842
:1006580003F0E2FE00BF1837BD4680BD00380240F7
:10066800000C024080B400AF00BFBD465DF8047BBB
:100678007047000080B500AF00221249124804F00C
:1006880051FA0346002B01D0FFF7ECFF0F490E4843
:1006980004F073FA0346002B01D0FFF7E3FF0C497F
:1006A800094805F0D1FC0346002B01D0FFF7DAFF1B
:1006B800054804F07CFA0346002B01D0FFF7D2FF6F
:1006C80000BF80BD000000206C02002080000020D8
:1006D8005800002080B58AB000AF786007F1140395
:1006E80000221A605A609A60DA601A617B681B6897
:1006F800B3F1A04F3AD100233B611E4B1B6B1D4A3F
:1007080043F0010313631B4B1B6B03F001033B61B5
:100718003B694FF4C0537B610223BB610023FB613B
:1007280003233B620A237B6207F11403194612482C
:1007380003F072FE0F4B5B6B0E4A43F0800353636A
:100748000023FB600B4B5B6C0A4A43F48043536401
:10075800084B5B6C03F48043FB60FB6800220021BC
:10076800432004F0F0F8432004F009F900BF2837CB
:10077800BD4680BD003802400000024080B582B00E
:1007880000AF78607B68D3F804247B6803F5717345
:100798001946104604F054FA00BF0837BD4680BD1C
:1007A80080B582B000AF78600B46FB707B68D3F8E9
:1007B8000404FA7879681346DB009B1A9B000B4403
:1007C80003F502731A68FB78194604F084FA00BF2F
:1007D8000837BD4680BD80B582B000AF78600B4653
:1007E800FB707B68D3F80404FA7879681346DB0059
:1007F8009B1A9B000B4448331A68FB78194604F08F
:10080800DBFA00BF0837BD4680BD80B582B000AFB7
:1008180078607B68D3F80434184604F0E9FB00BF1D
:100828000837BD4680BD80B584B000AF786001232D
:10083800FB737B68DB68002B02D10023FB7308E0A5
:100848007B68DB68022B02D10123FB7301E0FFF711
:1008580009FF7B68D3F80434FA7B1146184604F084
:1008680091FB7B68D3F80434184604F04AFB00BFB8
:100878001037BD4680BD000080B582B000AF7860FB
:100888007B68D3F80434184604F08CFB7B681B683B
:1008980003F560631B687A68126802F5606243F0CA
:1008A800010313607B681B6A002B05D0044B1B698E
:1008B800034A43F00603136100BF0837BD4680BDF5
:1008C80000ED00E080B582B000AF78607B68D3F8B7
:1008D8000434184604F07BFB00BF0837BD4680BDD2
:1008E80080B582B000AF78600B46FB707B68D3F8A8
:1008F8000434FA781146184604F0A1FB00BF083703
:10090800BD4680BD80B582B000AF78600B46FB70F5
:100918007B68D3F80434FA781146184604F082FB51
:1009280000BF0837BD4680BD80B582B000AF786093
:100938007B68D3F80434184604F08EFB00BF0837F0
:10094800BD4680BD80B582B000AF78607B68D3F8C3
:100958000434184604F08BFB00BF0837BD4680BD41
:1009680080B582B000AF78607B681B78002B3CD1E3
:10097800204A7B68C2F804347B681E4AC3F8982270
:100988001C4B4FF0A0421A601A4B04225A60194BB4
:100998000222DA60174B00221A61164B02229A6172
:1009A800144B0022DA61134B00221A62114B002209
:1009B8005A62104B0022DA620E4B00221A630D486D
:1009C80000F08AFC0346002B01D0FFF74BFE802184
:1009D800084801F0EEFD40220021064801F0A2FD82
:1009E80080220121034801F09DFD002318460837A5
:1009F800BD4680BD0805002080B584B000AF786092
:100A08000023FB730023BB737B68D3F89832184626
:100A180000F07FFD0346FB73FB7B184600F02EF9C0
:100A28000346BB73BB7B18461037BD4680BD80B5F7
:100A380084B000AF7860084611461A460346FB703A
:100A48000B46BB7013463B800023FB730023BB732C
:100A58007B68D3F89802BB783A88F97801F054F9A2
:100A68000346FB73FB7B184600F008F90346BB738B
:100A7800BB7B18461037BD4680BD80B584B000AF3B
:100A880078600B46FB700023FB730023BB737B6805
:100A9800D3F89832FA781146184601F09DF90346C2
:100AA800FB73FB7B184600F0E9F80346BB73BB7B7E
:100AB80018461037BD4680BD80B584B000AF786059
:100AC8000B46FB700023FB730023BB737B68D3F8D2
:100AD8009832FA781146184601F075FA0346FB7306
:100AE800FB7B184600F0CAF80346BB73BB7B18466D
:100AF8001037BD4680BD80B584B000AF78600B4626
:100B0800FB700023FB730023BB737B68D3F8983218
:100B1800FA781146184601F0BAFA0346FB73FB7BD4
:100B2800184600F0ABF80346BB73BB7B184610377A
:100B3800BD4680BD80B485B000AF78600B46FB70C1
:100B48007B68D3F89832FB6097F90330002B0BDAF7
:100B5800FB7803F07F02F9681346DB009B1A9B00C1
:100B68000B443E331B780BE0FB7803F07F02F968F7
:100B78001346DB009B1A9B000B4403F5FF731B789D
:100B880018461437BD465DF8047B704780B584B0BD
:100B980000AF78600B46FB700023FB730023BB7328
:100BA8007B68D3F89832FA781146184601F087F82E
:100BB8000346FB73FB7B184600F060F80346BB73E3
:100BC800BB7B18461037BD4680BD80B586B000AFE8
:100BD800F8607A601A460B46FB7213463B81002385
:100BE800FB750023BB75FB68D3F898023B89F97A3B
:100BF8007A6801F09EF90346FB75FB7D184600F004
:100C08003DF80346BB75BB7D18461837BD4680BD09
:100C180080B586B000AFF8607A601A460B46FB7262
:100C280013463B810023FB750023BB75FB68D3F893
:100C380098023B89F97A7A6801F018F90346FB753E
:100C4800FB7D184600F01AF80346BB75BB7D1846B5
:100C58001837BD4680BD80B582B000AF78600B46BE
:100C6800FB707B68D3F89832FA781146184601F081
:100C780048F9034618460837BD4680BD80B485B09C
:100C880000AF0346FB710023FB73FB79032B17D8D6
:100C980001A252F823F000BFB10C0008B70C0008FD
:100CA800BD0C0008C30C00080023FB730BE00223F3
:100CB800FB7308E00123FB7305E00223FB7302E0EA
:100CC8000223FB7300BFFB7B18461437BD465DF853
:100CD800047B704780B483B000AF03463960FB7172
:100CE8003B6812221A80034B18460C37BD465DF844
:100CF800047B70471C00002080B483B000AF03461B
:100D08003960FB713B6804221A80034B18460C3784
:100D1800BD465DF8047B70473000002080B582B086
:100D280000AF03463960FB71FB79002B05D13A68A7
:100D38000749084804F072FE04E03A680449054887
:100D480004F06CFE024B18460837BD4680BD00BF54
:100D580010090020D06A000880B582B000AF0346B1
:100D68003960FB713A680449044804F057FE024BA5
:100D780018460837BD4680BD10090020E86A0008FB
:100D880080B582B000AF03463960FB713B681A2218
:100D98001A8000F043F8024B18460837BD4680BD5C
:100DA8003400002080B582B000AF03463960FB7183
:100DB800FB79002B05D13A680749084804F02EFE54
:100DC80004E03A680449054804F028FE024B184636
:100DD8000837BD4680BD00BF10090020FC6A000826
:100DE80080B582B000AF03463960FB71FB79002BF8
:100DF80005D13A680749084804F010FE04E03A684B
:100E08000449054804F00AFE024B18460837BD4657
:100E180080BD00BF10090020086B000880B584B0B1
:100E280000AF0F4B1B68FB600E4B1B68BB600E4B83
:100E38001B687B60FA687B681344FB60FB68002BC7
:100E480009D008220949F86800F014F80422084972
:100E5800B86800F00FF800BF1037BD4680BD00BF6E
:100E6800107AFF1F147AFF1F187AFF1F3600002020
:100E78004600002080B487B000AFF860B960134620
:100E8800FB710023FB750023FB7527E0FB681B0F34
:100E9800092B0BD8FB681B0FDAB2FB7D5B001946E8
:100EA800BB680B443032D2B21A700AE0FB681B0FE1
:100EB800DAB2FB7D5B001946BB680B443732D2B20D
:100EC8001A70FB681B01FB60FB7D5B000133BA688D
:100ED800134400221A70FB7D0133FB75FA7DFB7900
:100EE8009A42D3D300BF1C37BD465DF8047B7047D8
:100EF80080B500AF00220549054805F0BCF8054952
:100F0800034805F0D2F80023184680BD500B002096
:100F18006C020020100B002080B400AF002318469C
:100F2800BD465DF8047B704780B483B000AF0346CC
:100F38003960FB711346BB80FB79232B00F2988044
:100F480001A252F823F000BF7910000879100008B8
:100F58007910000879100008791000087910000845
:100F68007910000879100008791000087910000835
:100F78007910000879100008791000087910000825
:100F88007910000879100008791000087910000815
:100F98007910000879100008791000087910000805
:100FA80079100008791000087910000879100008F5
:100FB80079100008791000087910000879100008E5
:100FC8007910000879100008E10F000825100008C2
:100FD80079100008791000083B681B781A463B68AE
:100FE80001331B781B021A433B6802331B781B042E
:100FF8001A433B6803331B781B0613431A46204BDE
:101008001A603B681A791E4B1A713B685A791C4B57
:101018005A713B689A791A4B9A712AE0184B1B68E7
:10102800DAB23B681A70164B1B681A0A3B68013320
:10103800D2B21A70124B1B681A0C3B680233D2B238
:101048001A700F4B1B681A0E3B680333D2B21A7022
:101058003B6804330A4A12791A703B680533084A18
:1010680052791A703B680633054A92791A7000E083
:1010780000BF002318460C37BD465DF8047B704757
:101088005000002080B582B000AF78603960796880
:10109800084805F00AF8074805F04AF83B681B6855
:1010A8009BB21946786805F083F80023184608377C
:1010B800BD4680BD6C02002080B584B000AF78606A
:1010C8000B467B800023FB730D4BD3F89032BB603B
:1010D800BB68D3F81432002B01D001230BE07B88C6
:1010E8001A467968064804F0C6FF054804F0F1FF7F
:1010F8000346FB73FB7B18461037BD4680BD00BF17
:101108006C02002080B400AF00BFBD465DF8047BD0
:10111800704780B400AFFEE780B400AFFEE780B44C
:1011280000AFFEE780B400AFFEE780B400AF00BFB9
:10113800BD465DF8047B704780B400AF00BFBD4674
:101148005DF8047B704780B400AF00BFBD465DF812
:10115800047B704780B500AF03F08CFC00BF80BDF6
:1011680080B500AF024800F007FA00BF80BD00BF9D
:101178000805002080B500AF00F020F800BF80BD52
:1011880080B500AF00F01AF800BF80BD80B500AF91
:1011980000F014F800BF80BD80B500AF00F00EF875
:1011A80000BF80BD80B500AF00F008F800BF80BD6B
:1011B80080B500AF00F002F800BF80BD80B400AF7A
:1011C8000E4B4FF0FF325A61BFF34F8F0B4B00228B
:1011D8001A600B4B00225A62094B1B69084A23F01C
:1011E80001031361064B1B68054A43F001031360B2
:1011F80000BFBD465DF8047B704700BF003C01405E
:101208000004014080B500AF114B1B68104A23F061
:10121800010313600F4B1B680E4A23F00103136090
:101228000C4B1B690B4A23F0010313610A4B1B6823
:10123800094A23F01103136000BF06210748FFF78E
:101248003BFF0346002BF8D105F0DEFA00BF80BD56
:10125800000001400004014088640240186B000847
:1012680080B500AF074B1B69064A23F040031361A2
:10127800044BDB68034A23F04003D360FFF79EFF6B
:1012880000BF80BD0004014080B483B000AF0023DC
:101298007B60104B5B6C0F4A43F4804353640D4BE7
:1012A8005B6C03F480437B607B6800233B60094BE5
:1012B8001B6C084A43F080531364064B1B6C03F005
:1012C80080533B603B6800BF0C37BD465DF8047B2C
:1012D800704700BF00380240F0B58FB00AAF7860A1
:1012E8007B68002B01D101230FE17B681B68BB6081
:1012F8007B6893F8BD33DBB2002B06D17B680022F4
:1013080083F8BC237868FFF7E5F97B68032283F844
:10131800BD23BB68DB6B03F48073002B02D17B68B1
:1013280000221A617B681B68184601F074FA7B6812
:101338001B683B607E686D4606F110040FCC0FC534
:101348000FCC0FC594E8030085E80300331D0ECBCE
:10135800386801F04BF90346002B05D07B68022260
:1013680083F8BD230123D0E07B681B680021184661
:1013780001F062FA0023FB734AE0FA7B79681346AE
:10138800DB009B1A9B000B443D3301221A70FA7B49
:1013980079681346DB009B1A9B000B443C33FA7BAD
:1013A8001A70FA7BFB7B98B279681346DB009B1AAC
:1013B8009B000B44423302461A80FA7B7968134635
:1013C800DB009B1A9B000B443F3300221A70FA7B08
:1013D80079681346DB009B1A9B000B4444330022B8
:1013E8001A60FA7B79681346DB009B1A9B000B4452
:1013F800483300221A60FA7B79681346DB009B1A8F
:101408009B000B44503300221A60FB7B0133FB73B3
:10141800FA7B7B685B689A42AFD30023FB7344E096
:10142800FA7B79681346DB009B1A9B000B4403F296
:10143800FD1300221A70FA7B79681346DB009B1AA9
:101448009B000B4403F5FE73FA7B1A70FA7B7968EC
:101458001346DB009B1A9B000B4403F2FF13002288
:101468001A70FA7B79681346DB009B1A9B000B44C1
:1014780003F5017300221A60FA7B79681346DB00D2
:101488009B1A9B000B4403F5027300221A60FA7B37
:1014980079681346DB009B1A9B000B4403F5047321
:1014A80000221A60FB7B0133FB73FA7B7B685B6865
:1014B8009A42B5D37B681B683B607E686D4606F12F
:1014C80010040FCC0FC50FCC0FC594E8030085E8B6
:1014D8000300331D0ECB386801F0D8F90346002B02
:1014E80005D07B68022283F8BD2301230DE07B68C9
:1014F800002283F838207B68012283F8BD237B68AB
:101508001B68184602F0CDF9002318461437BD466B
:10151800F0BD80B584B000AF78607B681B68FB6065
:101528007B6893F8BC33012B01D1022320E07B6850
:10153800012283F8BC237B689B6A012B09D17B6855
:101548009B69012B05D0FB689B6B43F48032FB68D9
:101558009A637B681B68184602F08BF97B681B68E6
:10156800184601F047F97B68002283F8BC23002362
:1015780018461037BD4680BD90B58DB000AF786075
:101588007B681B683B623B6AFB617B681B6818468B
:1015980002F032FA0346002B40F08E837B681B680A
:1015A800184602F096F90346002B00F084837B6806
:1015B8001B68184602F08DF9034603F00203022B5C
:1015C80007D17B681B685A697B681B6802F00202B6
:1015D8005A617B681B68184602F07BF9034603F4DE
:1015E8000023B3F5002F7BD100237B627B681B6847
:1015F800184602F081F9B8626FE0BB6A03F0010394
:10160800002B64D07B681B687A6AD2B211461846F0
:1016180002F0A6F9B861BB6903F00103002B0CD0F6
:101628007B6A5A01FB69134403F530631A460123A8
:101638009360796A786800F00DFEBB6903F00803CF
:10164800002B0CD0796A786800F00CFF7B6A5A018D
:10165800FB69134403F530631A4608239360BB699A
:1016680003F01003002B08D07B6A5A01FB6913446E
:1016780003F530631A4610239360BB6903F0200317
:10168800002B15D07B681B69012B08D17B68186873
:101698007B6803F571731A46012102F0F1F97B6A40
:1016A8005A01FB69134403F530631A4620239360FB
:1016B800BB6903F40053002B09D07B6A5A01FB690C
:1016C800134403F530631A464FF4005393607B6A62
:1016D80001337B62BB6A5B08BB62BB6A002B8CD19F
:1016E8007B681B68184602F0F4F8034603F480236D
:1016F800B3F5802F40F0C4807B681B68184602F061
:1017080015F9B86200237B62B6E0BB6A03F00103F7
:10171800002B00F0AB807B681B687A6AD2B2114656
:10172800184602F03BF9B861BB6903F00103002BCE
:101738005BD07B6A03F00F03012202FA03F37B619B
:10174800FB6903F500635A6B7B69DB43F96901F5B3
:10175800006113404B637B6A5A01FB69134403F52C
:1017680010631A46012393607B681B69012B1BD108
:1017780079687A6A1346DB009B1A9B000B4448334E
:10178800196878687A6A1346DB009B1A9B00034441
:1017980044331B68194478687A6A1346DB009B1A3D
:1017A8009B000344483319607B6ADBB219467868AA
:1017B800FFF711F87B681B69012B16D17B6A002B98
:1017C80013D179687A6A1346DB009B1A9B000B4495
:1017D80050331B68002B08D17B6818687B6803F5B9
:1017E80071731A46012102F04BF9BB6903F0080333
:1017F800002B08D07B6A5A01FB69134403F5106378
:101808001A4608239360BB6903F01003002B08D025
:101818007B6A5A01FB69134403F510631A461023C7
:101828009360BB6903F04003002B08D07B6A5A0120
:10183800FB69134403F510631A4640239360BB69A0
:1018480003F00203002B08D07B6A5A01FB6913449A
:1018580003F510631A4602239360BB6903F0800303
:10186800002B03D0796A786800F067FC7B6A013343
:101878007B62BB6A5B08BB62BB6A002B7FF445AF27
:101888007B681B68184602F024F8034603F00043FF
:10189800B3F1004F22D1FB6903F500635B68FA6975
:1018A80002F5006223F0010353607B6893F8F43378
:1018B800012B08D17B68002283F8F4230021786883
:1018C80000F088FE02E07868FEF7FCFF7B681B6882
:1018D8005A697B681B6802F000425A617B681B6882
:1018E800184601F0F6FF034603F40063B3F5006FF2
:1018F80012D1FB6903F500639B6803F00103012B18
:1019080002D17868FEF7B8FF7B681B685A697B6864
:101918001B6802F400625A617B681B68184601F074
:10192800D8FF034603F48053B3F5805F40F0A780E7
:10193800FB6903F500635B68FA6902F5006223F04E
:10194800010353607B681B681021184601F010F9E9
:101958000023FB6236E0FB6A5A01FB69134403F576
:1019680010631A464FF67F339360FB6A5A01FB698E
:10197800134403F510631B68FA6A5101FA690A44B3
:1019880002F5106223F400131360FB6A5A01FB6925
:10199800134403F530631A464FF67F339360FB6AAE
:1019A8005A01FB69134403F530631B68FA6A510155
:1019B800FA690A4402F5306223F400131360FB6AE3
:1019C8000133FB627B685B68FA6A9A42C3D3FB699E
:1019D80003F50063DB69FA6902F5006243F001135D
:1019E800D3617B681B6B002B16D0FB6903F5006382
:1019F800D3F88430FA6902F5006243F00B03C2F8A9
:101A08008430FB6903F500635B6CFA6902F50062D8
:101A180043F00B03536415E0FB6903F500635B694E
:101A2800FA6902F5006243F4005343F02B03536153
:101A3800FB6903F500631B69FA6902F5006243F06C
:101A48000B031361FB6903F500631B68FA6902F570
:101A5800006223F4FE6313607B6818687B681B6967
:101A6800D9B27B6803F571731A4602F009F87B68EE
:101A78001B685A697B681B6802F480525A617B684C
:101A88001B68184601F025FF034603F40053B3F51D
:101A9800005F24D17B681B68184601F0BBFF7B6898
:101AA8001B68184601F0C5F803461A467B68DA60D9
:101AB8007B681C6802F0A4FC01467B68DB68DBB22B
:101AC8001A46204600F0F4FD7868FEF7ACFE7B6805
:101AD8001B685A697B681B6802F400525A617B686C
:101AE8001B68184601F0F5FE034603F01003102B9F
:101AF80061D17B681B689A697B681B6822F01002B9
:101B08009A613B6A1B6A3B613B6903F00F0213460B
:101B1800DB009B1A9B0003F5FC737A6813440433BB
:101B2800FB603B695B0C03F00F03022B24D13A697D
:101B380047F6F0731340002B35D0FB68D9683B6932
:101B48001B099BB2C3F30A039BB21A46386A01F019
:101B58006DFDFB68DA683B691B09C3F30A031A4485
:101B6800FB68DA60FB689A693B691B09C3F30A03DF
:101B78001A44FB689A6116E03B695B0C03F00F039B
:101B8800062B10D17B6803F5717308221946386A51
:101B980001F04CFDFB689A693B691B09C3F30A0312
:101BA8001A44FB689A617B681B689A697B681B68A2
:101BB80042F010029A617B681B68184601F089FEA2
:101BC800034603F00803082B0AD17868FEF71DFEC8
:101BD8007B681B685A697B681B6802F008025A61B7
:101BE8007B681B68184601F074FE034603F48013F3
:101BF800B3F5801F0FD100237B627B6ADBB21946E5
:101C08007868FEF77FFE7B681B685A697B681B68EB
:101C180002F480125A617B681B68184601F059FE6D
:101C2800034603F40013B3F5001F0FD100237B62B2
:101C38007B6ADBB219467868FEF752FE7B681B6840
:101C48005A697B681B6802F400125A617B681B683A
:101C5800184601F03EFE034603F08043B3F1804F7F
:101C68000AD17868FEF760FE7B681B685A697B6852
:101C78001B6802F080425A617B681B68184601F0B5
:101C880028FE034603F00403042B15D17B681B6868
:101C98005B683B613B6903F00403002B02D0786862
:101CA800FEF750FE7B681B6859687B681B683A69B9
:101CB8000A435A6000E000BF3437BD4690BD80B586
:101CC80082B000AF78600B46FB707B6893F8BC333A
:101CD800012B01D1022313E07B68012283F8BC2386
:101CE8007B68FA7883F838207B681B68FA78114695
:101CF800184601F098FD7B68002283F8BC23002376
:101D080018460837BD4680BD80B584B000AF7860FE
:101D1800084611461A460346FB700B463B8013469D
:101D2800BB700023FB7297F90330002B0FDAFB78A6
:101D380003F00F021346DB009B1A9B0038337A68C6
:101D480013440433FB60FB6801225A700FE0FB78F0
:101D580003F00F021346DB009B1A9B0003F5FC738C
:101D68007A6813440433FB60FB6800225A70FB78DE
:101D780003F00F03DAB2FB681A703A88FB689A60BE
:101D8800FB68BA78DA70FB685B78002B04D0FB68D4
:101D98001B789AB2FB68DA80BB78022B02D1FB6809
:101DA80000221A717B6893F8BC33012B01D10223FE
:101DB8000EE07B68012283F8BC237B681B68F96806
:101DC800184600F05BFF7B68002283F8BC23FB7A8F
:101DD80018461037BD4680BD80B584B000AF786026
:101DE8000B46FB7097F90330002B0FDAFB7803F0F2
:101DF8000F021346DB009B1A9B0038337A681344A2
:101E08000433FB60FB6801225A700FE0FB7803F093
:101E18000F021346DB009B1A9B0003F5FC737A68DC
:101E280013440433FB60FB6800225A70FB7803F00C
:101E38000F03DAB2FB681A707B6893F8BC33012B86
:101E480001D102230EE07B68012283F8BC237B6862
:101E58001B68F968184600F099FF7B68002283F830
:101E6800BC23002318461037BD4680BD80B586B018
:101E780000AFF8607A603B600B46FB72FB7A03F0B8
:101E88000F021346DB009B1A9B0003F5FC73FA68EC
:101E9800134404337B617B697A68DA607B693A684A
:101EA8005A617B6900229A617B6900225A70FB7A29
:101EB80003F00F03DAB27B691A70FB681B69012B08
:101EC80002D17A687B691A61FB7A03F00F03002B51
:101ED80009D1FB681868FB681B69DBB21A46796987
:101EE80001F01CFA08E0FB681868FB681B69DBB2A4
:101EF8001A46796900F0CEFF002318461837BD4608
:101F080080BD80B483B000AF78600B46FB70FB786F
:101F180003F00F0279681346DB009B1A9B000B4401
:101F280003F505731B6818460C37BD465DF8047B3E
:101F3800704780B586B000AFF8607A603B600B46AA
:101F4800FB72FB7A03F00F021346DB009B1A9B001F
:101F58003833FA68134404337B617B697A68DA6042
:101F68007B693A685A617B6900229A617B69012220
:101F78005A70FB7A03F00F03DAB27B691A70FB68B8
:101F88001B69012B02D17A687B691A61FB7A03F01D
:101F98000F03002B09D1FB681868FB681B69DBB2CB
:101FA8001A46796901F0BAF908E0FB681868FB6815
:101FB8001B69DBB21A46796900F06CFF00231846EA
:101FC8001837BD4680BD80B584B000AF78600B4639
:101FD800FB70FB7803F00F027B685B689A4201D9BB
:101FE800012350E097F90330002B0FDAFB7803F058
:101FF8000F021346DB009B1A9B0038337A681344A0
:102008000433FB60FB6801225A700DE0FA7813462E
:10201800DB009B1A9B0003F5FC737A6813440433B6
:10202800FB60FB6800225A70FB6801229A70FB78FB
:1020380003F00F03DAB2FB681A707B6893F8BC33BD
:10204800012B01D102231EE07B68012283F8BC2307
:102058007B681B68F968184601F011FBFB7803F0F0
:102068000F03002B0AD17B6818687B681B69D9B2FB
:102078007B6803F571731A4601F002FD7B68002244
:1020880083F8BC23002318461037BD4680BD80B5B1
:1020980084B000AF78600B46FB70FB7803F00F024A
:1020A8007B685B689A4201D9012342E097F90330C3
:1020B800002B0FDAFB7803F00F021346DB009B1AA4
:1020C8009B0038337A6813440433FB60FB680122B1
:1020D8005A700FE0FB7803F00F021346DB009B1ADF
:1020E8009B0003F5FC737A6813440433FB60FB68B8
:1020F80000225A70FB6800229A70FB7803F00F03E5
:10210800DAB2FB681A707B6893F8BC33012B01D1F3
:1021180002230EE07B68012283F8BC237B681B68DE
:10212800F968184601F019FB7B68002283F8BC2384
:10213800002318461037BD4680BD80B58AB002AF6F
:10214800786039607B681B687B617B693B613A68B2
:102158001346DB009B1A9B0038337A681344043318
:10216800FB60FB689A69FB685B699A4201D90123A5
:102178006CE0FB685A69FB689B69D31AFB61FB68D2
:102188009B68FA699A4202D9FB689B68FB61FB6904
:1021980003339B08BB612BE0FB685A69FB689B69AA
:1021A800D31AFB61FB689B68FA699A4202D9FB68FB
:1021B8009B68FB61FB6903339B08BB61FB68D968BB
:1021C8003B68DAB2FB6998B27B681B69DBB20093A3
:1021D8000346786901F0F5F9FB68DA68FB691A4487
:1021E800FB68DA60FB689A69FB691A44FB689A61C4
:1021F8003B685A013B69134403F510639B699BB222
:10220800BA699A4209D8FB689A69FB685B699A427D
:1022180003D2FB685B69002BBED1FB685A69FB6877
:102228009B699A4211D83B6803F00F03012202FA16
:1022380003F3BB603B6903F500635A6BBB68DB4380
:10224800396901F5006113404B63002318462037B4
:10225800BD4680BD80B586B000AF786039607B68C8
:102268001B687B617B693B617B693C3304331B687A
:10227800FB603B685A013B69134403F530639B6874
:10228800BB607B681B69012B40F0B380BB6803F01F
:102298000803002B28D0FB68704A93420ED9BB680C
:1022A80003F40043002B09D03B685A013B691344EF
:1022B80003F530631A464FF4004393607868FEF7DD
:1022C8005DFA7B6818687B6803F571731A4601210B
:1022D80001F0D6FB3B685A013B69134403F53063B0
:1022E8001A4608239360B3E0BB6803F02003002B71
:1022F80009D03B685A013B69134403F530631A4619
:1023080020239360A4E0BB6803F02803002B40F06F
:102318009F80FB68514A93420FD9BB6803F400437E
:10232800002B0AD03B685A013B69134403F530631C
:102338001A464FF4004393608AE079683A68134676
:10234800DB009B1A9B000B4403F501731A683B687A
:1023580059013B690B4403F530631B69C3F312034E
:10236800D11A78683A681346DB009B1A9B0003442D
:1023780003F50573196079683A681346DB009B1A00
:102388009B000B4403F50273196878683A68134692
:10239800DB009B1A9B00034403F501731B68194477
:1023A80078683A681346DB009B1A9B00034403F5E0
:1023B800027319603B68DBB219467868FEF7F0F9DA
:1023C8003B68002B44D179683A681346DB009B1AB6
:1023D8009B000B4403F504731B68002B38D17B6802
:1023E80018687B6803F571731A46012101F048FBF0
:1023F8002EE0FB681A4A934224D1BB6803F40043D9
:10240800002B0AD03B685A013B69134403F530633B
:102418001A464FF4004393601AE0BB6803F02003A8
:10242800002B08D03B685A013B69134403F530631D
:102438001A46202393603B68DBB219467868FEF79A
:10244800AFF905E03B68DBB219467868FEF7A8F9F2
:10245800002318461837BD4680BD00BF0A30544FC8
:102468000A31544F80B586B000AF786039607B6818
:102478001B687B617B693B617B693C3304331B6868
:10248800FB603B685A013B69134403F530639B6862
:10249800BB607B681B69012B13D1FB681F4A934201
:1024A80022D9BB6803F40043002B1DD03B685A01B6
:1024B8003B69134403F530631A464FF400439360B5
:1024C80012E0FB68164A93420ED1BB6803F400433E
:1024D800002B09D03B685A013B69134403F530636C
:1024E8001A464FF4004393607868FEF747F9FB6893
:1024F8000A4A93420CD97B681B69012B08D17B6877
:1025080018687B6803F571731A46012101F0B8FA5F
:10251800002318461837BD4680BD00BF0A30544F07
:102528000A31544F80B485B000AF78600B46FB7019
:1025380013463B807B681B685B6ABB60FB78002B9B
:1025480007D13B8819047B681B68BA680A439A62FA
:1025580028E07B681B689B6A1B0CBA681344BB6045
:102568000023FB730DE07B681A68FB7B40339B00FC
:1025780013445B681B0CBA681344BB60FB7B0133D4
:10258800FB73FA7BFB78013B9A42ECD33B88180437
:102598007B681968FB78013BBA68024340339B00AB
:1025A8000B445A60002318461437BD465DF8047B77
:1025B800704780B483B000AF78600B467B807B683F
:1025C8001B687A885A62002318460C37BD465DF8A6
:1025D800047B704780B483B000AF78600B46FB7013
:1025E80000BF0C37BD465DF8047B704784B080B5EA
:1025F80084B000AF786007F11C0080E80E003B6BE8
:10260800012B22D17B689B6B23F480327B689A6311
:102618007B68DB6823F4840323F040037A68D36083
:102628007B68DB6823F440127B68DA60FB6C012B63
:1026380005D17B68DB6843F480127B68DA607868D0
:1026480001F07CFA0346FB731AE07B68DB6843F011
:1026580040027B68DA60786801F070FA0346FB7321
:102668003B6C002B06D17B689B6B43F480327B6804
:102678009A6305E07B689B6B23F480327B689A63DE
:10268800BB6A012B0BD17B689B6843F006027B6811
:102698009A607B689B6843F020027B689A60FB7BAA
:1026A80018461037BD46BDE8804004B070470000AA
:1026B80080B487B000AFF860B9601346FB71FB794E
:1026C800022B65D1BB68414A934206D9BB68404A90
:1026D800934202D80F237B6162E0BB683C4A934275
:1026E80006D9BB683B4A934202D80E237B6157E068
:1026F800BB68384A934206D9BB68374A934202D826
:102708000D237B614CE0BB68334A934206D9BB6812
:10271800324A934202D80C237B6141E0BB682F4ABE
:10272800934206D9BB682E4A934202D80B237B6199
:1027380036E0BB682A4A934206D9BB68294A9342C5
:1027480002D80A237B612BE0BB68264A934206D94C
:10275800BB68254A934202D809237B6120E0BB6805
:10276800214A934206D9BB68204A934202D80823DB
:102778007B6115E0BB681D4A934206D9BB681C4AB9
:10278800934202D807237B610AE006237B6107E0B6
:10279800FB79002B02D109237B6101E009237B61CE
:1027A800FB68DB6823F47052FB68DA60FB68DA6860
:1027B8007B699B0203F470531A43FB68DA600023B9
:1027C80018461C37BD465DF8047B7047BFACD8007F
:1027D800BFE1E400FF23F4007F7306019F491A015B
:1027E800FF2C31013FA44C01FF356E011FABA60140
:1027F800FF47E80180B483B000AF78607B689B68CE
:1028080043F001027B689A60002318460C37BD46E6
:102818005DF8047B704780B483B000AF78607B6854
:102828009B6823F001027B689A60002318460C37E6
:10283800BD465DF8047B704780B582B000AF786014
:102848000B46FB707B68DB6823F0C0427B68DA606C
:10285800FB78012B06D17B68DB6843F000527B686C
:10286800DA600BE0FB78002B06D17B68DB6843F06D
:1028780080427B68DA6001E0012303E0322002F045
:1028880019F9002318460837BD4680BD84B080B5C5
:1028980086B000AF786007F1240080E80E000023BE
:1028A800FB757B68FB6000233B6109E07A683B6944
:1028B80040339B00134400225A603B6901333B615B
:1028C8003B690E2BF2D9FB6C002B12D17B689B6BFA
:1028D80043F400127B689A637B689B6B23F40022A5
:1028E8007B689A637B689B6B23F480227B689A637E
:1028F8000BE07B681B6823F400127B681A607B6816
:102908009B6B43F400227B689A63FB6803F5606362
:102918001A4600231360FB6803F500631946FB6839
:1029280003F500631A460B681360BB6B012B0CD1CF
:10293800FB6A002B04D10021786800F061F908E0F7
:102948000121786800F05CF903E00321786800F061
:1029580057F91021786800F00BF90346002B01D0D5
:102968000123FB75786800F029F90346002B01D094
:102978000123FB75FB6803F500631A460023136106
:10298800FB6803F500631A4600235361FB6803F5EF
:1029980000631A460023D36100233B6143E03B698F
:1029A8005A01FB68134403F510631B6803F00043E6
:1029B800B3F1004F18D13B69002B0AD13B695A018A
:1029C800FB68134403F510631A464FF00063136065
:1029D80013E03B695A01FB68134403F510631A4678
:1029E8004FF09043136008E03B695A01FB681344B9
:1029F80003F510631A46002313603B695A01FB680C
:102A0800134403F510631A46002313613B695A0106
:102A1800FB68134403F510631A464FF67F3393603F
:102A28003B6901333B617B6A3A699A42B7D3002319
:102A38003B6143E03B695A01FB68134403F530638B
:102A48001B6803F00043B3F1004F18D13B69002B1A
:102A58000AD13B695A01FB68134403F530631A46EF
:102A68004FF00063136013E03B695A01FB6813449D
:102A780003F530631A464FF09043136008E03B6952
:102A88005A01FB68134403F530631A4600231360A8
:102A98003B695A01FB68134403F530631A46002367
:102AA80013613B695A01FB68134403F530631A4606
:102AB8004FF67F3393603B6901333B617B6A3A6928
:102AC8009A42B7D3FB6803F500631B69FA6802F5FD
:102AD800006223F4807313613B6B012B11D1FB68F7
:102AE80003F500631A46204B1363FB6803F5006384
:102AF8001B6BFA6802F5006243F4803343F003036A
:102B080013637B6800229A617B686FF080425A6188
:102B18003B6B002B05D17B689B6943F010027B68F7
:102B28009A617B689A69114B13437A689361FB6BCE
:102B3800002B05D07B689B6943F008027B689A618B
:102B4800FB6C012B07D17B689B6943F0804343F002
:102B580004037A689361FB7D18461837BD46BDE8C3
:102B6800804004B0704700BF0001800000383C80FE
:102B780080B485B000AF786039600023FB603B68A3
:102B88009B0143F020027B681A61FB680133FB60FC
:102B9800FB68094A934201D9032306E07B681B6955
:102BA80003F02003202BF0D0002318461437BD462D
:102BB8005DF8047B704700BF400D030080B485B00A
:102BC80000AF78600023FB607B6810221A61FB6805
:102BD8000133FB60FB68094A934201D9032306E0ED
:102BE8007B681B6903F01003102BF0D000231846F4
:102BF8001437BD465DF8047B704700BF400D0300E5
:102C080080B485B000AF78600B46FB707B68FB60D2
:102C1800FB6803F500631A68FB78F96801F5006141
:102C280013430B60002318461437BD465DF8047B38
:102C3800704780B487B000AF78607B683B613B69C0
:102C480003F500639B6803F00603FB60FB68002B39
:102C580002D10023FB750AE0FB68022B02D0FB6857
:102C6800062B02D10223FB7501E00F23FB75FB7DC8
:102C780018461C37BD465DF8047B704780B485B0A4
:102C880000AF786039607B68FB603B681B78BB608D
:102C98003B685B78012B3AD1FB6803F50063DA697E
:102CA8003B681B7803F00F03012101FA03F39BB281
:102CB800F96801F500611343CB61BB685A01FB68F1
:102CC800134403F510631B6803F40043002B55D12C
:102CD800BB685A01FB68134403F510631A683B6824
:102CE8009B68C3F30A013B68DB789B041943BB6804
:102CF8009B050B431343BA685101FA680A4402F56D
:102D0800106243F0805343F40043136036E0FB68DD
:102D180003F50063DA693B681B7803F00F030121B0
:102D280001FA03F31B04F96801F500611343CB6151
:102D3800BB685A01FB68134403F530631B6803F44E
:102D48000043002B1AD1BB685A01FB68134403F5F2
:102D580030631A683B689B68C3F30A013B68DB78F9
:102D68009B040B431343BA685101FA680A4402F5FD
:102D7800306243F0805343F4004313600023184645
:102D88001437BD465DF8047B7047000080B485B0F9
:102D980000AF786039607B68FB603B681B78BB607C
:102DA8003B685B78012B35D1FB6803F50063DA6B70
:102DB8003B681B7803F00F03012101FA03F39BB270
:102DC800DB43F96801F500611340CB63FB6803F549
:102DD8000063DA693B681B7803F00F03012101FAED
:102DE80003F39BB2DB43F96801F500611340CB6143
:102DF800BB685A01FB68134403F510631A68BB6883
:102E08005901FB680B4403F5106319461F4B134027
:102E18000B6034E0FB6803F50063DA6B3B681B78F2
:102E280003F00F03012101FA03F31B04DB43F968E4
:102E380001F500611340CB63FB6803F50063DA69B1
:102E48003B681B7803F00F03012101FA03F31B040D
:102E5800DB43F96801F500611340CB61BB685A0197
:102E6800FB68134403F530631A68BB685901FB68B3
:102E78000B4403F530631946054B13400B600023E0
:102E880018461437BD465DF8047B7047007833EC6C
:102E98000078F3EF80B58AB002AFF860B9601346E6
:102EA800FB71FB68FB61BB681B78BB61BB685B7827
:102EB800012B40F05C81BB685B69002B32D1BB6998
:102EC8005A01FB69134403F510631B69BA69510180
:102ED800FA690A4402F5106223F0FF5323F4C01381
:102EE8001361BB695A01FB69134403F510631B693D
:102EF800BA695101FA690A4402F5106243F40023E1
:102F08001361BB695A01FB69134403F510631B691C
:102F1800BA695101FA690A4402F51062DB0CDB0454
:102F2800136174E0BB695A01FB69134403F510632C
:102F38001B69BA695101FA690A4402F51062DB0C8F
:102F4800DB041361BB695A01FB69134403F5106381
:102F58001B69BA695101FA690A4402F5106223F043
:102F6800FF5323F4C0131361BB695A01FB6913446F
:102F780003F510631A69BB685969BB689B680B4401
:102F8800591EBB689B68B1FBF3F3D9049D4B0B40FA
:102F9800B9694801F969014401F5106113430B61EE
:102FA800BB695A01FB69134403F510631A69BB68CE
:102FB8005B69C3F31203B9694801F969014401F572
:102FC800106113430B61BB68DB78012B1FD1BB6910
:102FD8005A01FB69134403F510631B69BA6951016F
:102FE800FA690A4402F5106223F0C0431361BB6911
:102FF8005A01FB69134403F510631B69BA6951014F
:10300800FA690A4402F5106243F000531361FB7930
:10301800012B4BD1BB681B69002B09D0BB695A0136
:10302800FB69134403F510631A46BB681B695361B7
:10303800BB68DB78012B28D1FB6903F500639B682B
:1030480003F48073002B10D1BB695A01FB69134448
:1030580003F510631B68BA695101FA690A4402F55D
:10306800106243F0005313600FE0BB695A01FB691B
:10307800134403F510631B68BA695101FA690A44DD
:1030880002F5106243F080531360BB695A01FB6973
:10309800134403F510631B68BA695101FA690A44BD
:1030A80002F5106243F0044313602FE1BB695A0133
:1030B800FB69134403F510631B68BA695101FA6987
:1030C8000A4402F5106243F004431360BB68DB78DE
:1030D800012B15D0BB685B69002B00F01781FB69D9
:1030E80003F500635A6BBB681B7803F00F030121DB
:1030F80001FA03F3F96901F5006113434B6305E134
:10310800FB6903F500639B6803F48073002B10D1FF
:10311800BB695A01FB69134403F510631B68BA695C
:103128005101FA690A4402F5106243F00053136032
:103138000FE0BB695A01FB69134403F510631B6870
:10314800BA695101FA690A4402F5106243F08053E2
:103158001360BB68D968BB681A78BB685B6998B2AA
:10316800FB7900930346F86800F02BFACEE0BB69C0
:103178005A01FB69134403F530631B69BA695101AD
:10318800FA690A4402F53062DB0CDB041361BB699F
:103198005A01FB69134403F530631B69BA6951018D
:1031A800FA690A4402F5306223F0FF5323F4C0138E
:1031B8001361BB685B69002B26D1BB695A01FB69A7
:1031C800134403F530631A69BB689B68C3F31203A1
:1031D800B9694801F969014401F5306113430B618C
:1031E800BB695A01FB69134403F530631B69BA696B
:1031F8005101FA690A4402F5306243F4002313616D
:1032080036E000BF0000F81FBB685A69BB689B68BE
:1032180013445A1EBB689B68B2FBF3F3FB82BB697D
:103228005A01FB69134403F530631A69FB8AD90410
:10323800394B0B40B9694801F969014401F530611E
:1032480013430B61BB695A01FB69134403F53063EF
:103258001A69BB689B68F98A01FB03F3C3F312037D
:10326800B9694801F969014401F5306113430B61FB
:10327800FB79012B0DD1BB68DB68002B09D0BB683B
:10328800D968BB695A01FB69134403F530630A46E0
:103298005A61BB68DB78012B28D1FB6903F5006311
:1032A8009B6803F48073002B10D1BB695A01FB693A
:1032B800134403F530631B68BA695101FA690A447B
:1032C80002F5306243F0005313600FE0BB695A0106
:1032D800FB69134403F530631B68BA695101FA6945
:1032E8000A4402F5306243F080531360BB695A0107
:1032F800FB69134403F530631B68BA695101FA6925
:103308000A4402F5306243F0044313600023184670
:103318002037BD4680BD00BF0000F81F80B487B0CD
:1033280000AFF860B9601346FB71FB687B61BB684E
:103338001B783B61BB685B78012B40F0CD80BB6894
:103348005B69002B32D13B695A017B69134403F551
:1033580010631B693A6951017A690A4402F51062DF
:1033680023F0FF5323F4C01313613B695A017B69AF
:10337800134403F510631B693A6951017A690A44D9
:1033880002F5106243F4002313613B695A017B691B
:10339800134403F510631B693A6951017A690A44B9
:1033A80002F51062DB0CDB0413614EE03B695A0145
:1033B8007B69134403F510631B693A6951017A6903
:1033C8000A4402F51062DB0CDB0413613B695A0105
:1033D8007B69134403F510631B693A6951017A69E3
:1033E8000A4402F5106223F0FF5323F4C01313615B
:1033F800BB685A69BB689B689A4203D9BB689A68DC
:10340800BB685A613B695A017B69134403F5106331
:103418001B693A6951017A690A4402F5106243F45A
:10342800002313613B695A017B69134403F5106358
:103438001A69BB685B69C3F3120339694801796982
:10344800014401F5106113430B61FB79012B1ED177
:10345800BB681B69002B09D03B695A017B6913447F
:1034680003F510631A46BB681B6953613B695A012F
:103478007B69134403F510631B683A6951017A6943
:103488000A4402F5106243F00443136092E03B697A
:103498005A017B69134403F510631B683A695101AB
:1034A8007A690A4402F5106243F004431360BB686A
:1034B8005B69002B7ED07B6903F500635A6BBB68A0
:1034C8001B7803F00F03012101FA03F3796901F571
:1034D800006113434B636DE03B695A017B691344F8
:1034E80003F530631B693A6951017A690A4402F5A8
:1034F8003062DB0CDB0413613B695A017B691344BE
:1035080003F530631B693A6951017A690A4402F587
:10351800306223F0FF5323F4C0131361BB685B6967
:10352800002B03D0BB689A68BB685A613B695A0193
:103538007B69134403F530631B693A6951017A6961
:103548000A4402F5306243F4002313613B695A01CF
:103558007B69134403F530631A69BB689B68C3F33E
:103568001203396948017969014401F5306113434F
:103578000B61FB79012B0DD1BB68DB68002B09D0EF
:10358800BB68D9683B695A017B69134403F530630A
:103598000A465A613B695A017B69134403F5306353
:1035A8001B683A6951017A690A4402F5306243F0AE
:1035B80004431360002318461C37BD465DF8047B9E
:1035C800704780B489B000AFF860B96011461A46F8
:1035D8000B46FB711346BB80FB687B61BB68FB61D4
:1035E80097F82830002B1AD1BB8803339B083B611E
:1035F8000023BB610FE0FB791A037B69134403F5D1
:1036080080531A46FB691B681360FB690433FB612E
:10361800BB690133BB61BA693B699A42EBD30023AA
:1036280018462437BD465DF8047B704780B489B0DE
:1036380000AFF860B9601346FB80FB687B61BB682C
:10364800FB61FB8803339B083B610023BB610BE0F4
:103658007B6903F580531A68FB691A60FB690433B8
:10366800FB61BB690133BB61BA693B699A42EFD31D
:10367800FB6918462437BD465DF8047B704780B463
:1036880085B000AF786039607B68FB603B681B7869
:10369800BB603B685B78012B2CD1BB685A01FB6887
:1036A800134403F510631B68002B12DBBB68002B67
:1036B8000FD0BB685A01FB68134403F510631B68FD
:1036C800BA685101FA680A4402F5106223F080438F
:1036D8001360BB685A01FB68134403F510631B6849
:1036E800BA685101FA680A4402F5106243F40013FB
:1036F80013602BE0BB685A01FB68134403F5306381
:103708001B68002B12DBBB68002B0FD0BB685A016B
:10371800FB68134403F530631B68BA685101FA6803
:103728000A4402F5306223F080431360BB685A01F3
:10373800FB68134403F530631B68BA685101FA68E3
:103748000A4402F5306243F400131360002318465C
:103758001437BD465DF8047B704780B485B000AF70
:10376800786039607B68FB603B681B78BB603B68AE
:103778005B78012B28D1BB685A01FB68134403F519
:1037880010631B68BA685101FA680A4402F51062AE
:1037980023F4001313603B68DB78032B03D03B68EA
:1037A800DB78022B38D1BB685A01FB68134403F558
:1037B80010631B68BA685101FA680A4402F510627E
:1037C80043F08053136027E0BB685A01FB68134439
:1037D80003F530631B68BA685101FA680A4402F5B8
:1037E800306223F4001313603B68DB78032B03D0AB
:1037F8003B68DB78022B0FD1BB685A01FB68134486
:1038080003F530631B68BA685101FA680A4402F587
:10381800306243F080531360002318461437BD46C6
:103828005DF8047B704780B485B000AF78600B46C4
:10383800FB707B68FB60FB6803F500631B68FA6834
:1038480002F5006223F4FE631360FB6803F500636E
:103858001A68FB781B0103F4FE63F96801F500613F
:1038680013430B60002318461437BD465DF8047BEC
:10387800704780B584B000AF78607B68FB60FB68F8
:1038880003F500635B68FA6802F5006223F002033F
:103898005360032001F00EF9002318461037BD4687
:1038A80080BD80B584B000AF78607B68FB60FB6842
:1038B80003F500635B68FA6802F5006243F00203EF
:1038C8005360032001F0F6F8002318461037BD4670
:1038D80080BD80B485B000AF78607B685B69FB60B1
:1038E8007B689B69FA681340FB60FB6818461437CD
:1038F800BD465DF8047B704780B485B000AF786042
:103908007B68FB60FB6803F500639B69BB60FB6831
:1039180003F50063DB69BA681340BB60BB681B0C26
:1039280018461437BD465DF8047B704780B485B0EF
:1039380000AF78607B68FB60FB6803F500639B69F8
:10394800BB60FB6803F50063DB69BA681340BB60C2
:10395800BB689BB218461437BD465DF8047B7047B8
:1039680080B485B000AF78600B46FB707B68FB6065
:10397800FB785A01FB68134403F530639B68BB600E
:10398800FB6803F500635B69BA681340BB60BB68FA
:1039980018461437BD465DF8047B704780B487B07D
:1039A80000AF78600B46FB707B687B617B6903F531
:1039B80000631B693B617B6903F500635B6BFB601C
:1039C800FB7803F00F03FA6822FA03F3DB01DBB29A
:1039D8003A6913433B61FB785A017B69134403F549
:1039E80010639B683A691340BB60BB6818461C3774
:1039F800BD465DF8047B704780B483B000AF786043
:103A08007B685B6903F0010318460C37BD465DF817
:103A1800047B704780B485B000AF78607B68FB603A
:103A2800FB6803F510631B68FA6802F5106223F45B
:103A3800FF6323F007031360FB6803F500639B68CB
:103A480003F00603042B09D1FB6803F510631B6818
:103A5800FA6802F5106243F003031360FB6803F58C
:103A680000635B68FA6802F5006243F48073536090
:103A7800002318461437BD465DF8047B70470000E4
:103A880080B487B000AFF8600B467A60FB72FB68C1
:103A98007B61FB683C3304331B683B613B69264A06
:103AA80093420AD97B6903F530631B6803F000432E
:103AB800B3F1004F01D1002337E07B6903F5306390
:103AC8001A46002313617B6903F530631B697A6921
:103AD80002F5306243F4002313617B6903F5306318
:103AE8001B697A6902F5306243F0180313617B6938
:103AF80003F530631B697A6902F5306243F0C0430D
:103B08001361FB7A012B0FD17B6903F530631A46E9
:103B18007B6853617B6903F530631B687A6902F53A
:103B2800306243F080231360002318461C37BD46DB
:103B38005DF8047B704700BF0A30544F80B485B0ED
:103B480000AF78600023FB60FB680133FB60FB6813
:103B5800134A934201D903231BE07B681B69002B9E
:103B6800F2DA0023FB607B681B6943F001027B6883
:103B78001A61FB680133FB60FB68094A934201D96B
:103B8800032306E07B681B6903F00103012BF0D0D7
:103B9800002318461437BD465DF8047B704700BF04
:103BA800400D030080B586B000AF78607B68002BBD
:103BB80001D101235BE27B681B6803F00103002B42
:103BC80075D0A34B9B6803F00C03042B0CD0A04BBF
:103BD8009B6803F00C03082B12D19D4B5B6803F420
:103BE8008003B3F5800F0BD1994B1B6803F40033A6
:103BF800002B5BD07B685B68002B57D1012336E232
:103C08007B685B68B3F5803F06D1914B1B68904A8F
:103C180043F4803313601DE07B685B68B3F5A02F25
:103C28000CD18B4B1B688A4A43F480231360884B62
:103C38001B68874A43F4803313600BE0844B1B688E
:103C4800834A23F480331360814B1B68804A23F432
:103C5800802313607B685B68002B13D000F01EFF85
:103C6800386108E000F01AFF02463B69D31A642B5A
:103C780001D90323FBE1764B1B6803F40033002BC7
:103C8800F0D014E000F00AFF386108E000F006FF09
:103C980002463B69D31A642B01D90323E7E16C4B35
:103CA8001B6803F40033002BF0D100E000BF7B68F1
:103CB8001B6803F00203002B63D0654B9B6803F07D
:103CC8000C03002B0BD0624B9B6803F00C03082BF2
:103CD8001CD15F4B5B6803F48003002B16D15C4B4F
:103CE8001B6803F00203002B05D07B68DB68012BFF
:103CF80001D00123BBE1564B1B6823F0F8027B6817
:103D08001B69DB00524913430B603AE07B68DB68B0
:103D1800002B20D04F4B01221A6000F0BFFE386103
:103D280008E000F0BBFE02463B69D31A022B01D91A
:103D380003239CE1464B1B6803F00203002BF0D0E1
:103D4800434B1B6823F0F8027B681B69DB00404982
:103D580013430B6015E03F4B00221A6000F09EFEF3
:103D6800386108E000F09AFE02463B69D31A022B3C
:103D780001D903237BE1364B1B6803F00203002BB8
:103D8800F0D17B681B6803F00803002B30D07B68F8
:103D98005B69002B16D0304B01221A6000F07EFEC2
:103DA800386108E000F07AFE02463B69D31A022B1C
:103DB80001D903235BE1264B5B6F03F00203002B61
:103DC800F0D015E0244B00221A6000F067FE38613D
:103DD80008E000F063FE02463B69D31A022B01D9C2
:103DE800032344E11A4B5B6F03F00203002BF0D16D
:103DF8007B681B6803F00403002B00F0A0800023FD
:103E0800FB75134B1B6C03F08053002B0FD1002361
:103E1800BB600F4B1B6C0E4A43F0805313640C4B72
:103E28001B6C03F08053BB60BB680123FB750B4B15
:103E38001B6803F48073002B21D1084B1B68074AC9
:103E480043F48073136000F029FE386111E000BF6D
:103E58000038024000004742800E47420070004090
:103E680000F01CFE02463B69D31A022B01D903233A
:103E7800FDE0814B1B6803F48073002BF0D07B6856
:103E88009B68012B06D17D4B1B6F7C4A43F00103D5
:103E980013671CE07B689B68052B0CD1774B1B6F65
:103EA800764A43F004031367744B1B6F734A43F05D
:103EB800010313670BE0714B1B6F704A23F001037A
:103EC80013676E4B1B6F6D4A23F0040313677B68FF
:103ED8009B68002B15D000F0E1FD38610AE000F086
:103EE800DDFD02463B69D31A41F28832934201D97B
:103EF8000323BCE0614B1B6F03F00203002BEED0E1
:103F080014E000F0CBFD38610AE000F0C7FD02467E
:103F18003B69D31A41F28832934201D90323A6E0C0
:103F2800564B1B6F03F00203002BEED1FB7D012BD8
:103F380005D1524B1B6C514A23F0805313647B68A4
:103F48009B69002B00F092804C4B9B6803F00C039C
:103F5800082B5CD07B689B69022B41D1484B00221F
:103F68001A6000F09BFD386108E000F097FD0246FA
:103F78003B69D31A022B01D9032378E03F4B1B6816
:103F880003F00073002BF0D17B68DA697B681B6A49
:103F98001A437B685B6A9B011A437B689B6A5B08D0
:103FA800013B1B041A437B68DB6A1B063349134336
:103FB8004B60334B01221A6000F070FD386108E055
:103FC80000F06CFD02463B69D31A022B01D903238A
:103FD8004DE02A4B1B6803F00073002BF0D045E03E
:103FE800274B00221A6000F059FD386108E000F004
:103FF80055FD02463B69D31A022B01D9032336E04B
:104008001E4B1B6803F00073002BF0D12EE07B6879
:104018009B69012B01D1012329E0184B9B68FB60A8
:10402800FB6803F480027B68DB699A421CD1FB6859
:1040380003F03F027B681B6A9A4215D1FA6847F67B
:10404800C07313407A68526A93420DD1FB6803F437
:1040580040327B689B6A9A4206D1FB6803F0706223
:104068007B68DB6A9A4201D0012300E000231846EE
:104078001837BD4680BD00BF0070004000380240C0
:104088006000474280B584B000AF786039607B68D3
:10409800002B01D10123CCE0684B1B6803F00F0310
:1040A8003A689A420CD9654B3A68D2B21A70634B97
:1040B8001B6803F00F033A689A4201D00123B8E065
:1040C8007B681B6803F00203002B20D07B681B6809
:1040D80003F00403002B05D0594B9B68584A43F45E
:1040E800E05393607B681B6803F00803002B05D03E
:1040F800534B9B68524A43F460439360504B9B6810
:1041080023F0F0027B689B684D4913438B607B6802
:104118001B6803F00103002B44D07B685B68012B0C
:1041280007D1474B1B6803F40033002B19D1012337
:104138007FE07B685B68022B03D07B685B68032B9E
:1041480007D13F4B1B6803F00073002B09D10123F3
:104158006FE03B4B1B6803F00203002B01D10123E6
:1041680067E0374B9B6823F003027B685B68344940
:1041780013438B6000F092FCF8600AE000F08EFCBC
:104188000246FB68D31A41F28832934201D90323CD
:104198004FE02B4B9B6803F00C027B685B689B002D
:1041A8009A42EBD1254B1B6803F00F033A689A42F9
:1041B8000CD2224B3A68D2B21A70204B1B6803F01B
:1041C8000F033A689A4201D0012332E07B681B68EA
:1041D80003F00403002B08D0194B9B6823F4E0522A
:1041E8007B68DB68164913438B607B681B6803F0A8
:1041F8000803002B09D0124B9B6823F460427B68AC
:104208001B69DB000E4913438B6000F021F801465F
:104218000B4B9B681B0903F00F030A4AD35C21FA76
:1042280003F3094A1360094B1B68184600F0F2FBB8
:10423800002318461037BD4680BD00BF003C024031
:1042480000380240286B0008700000206800002039
:10425800F0B585B000AF00237B600023FB6000232E
:104268003B600023BB60634B9B6803F00C03042B8B
:1042780007D0082B08D0002B40F0B4805E4BBB6001
:10428800B3E05E4BBB60B0E05A4B5B6803F03F03A2
:104298007B60584B5B6803F48003002B4AD0554B76
:1042A8005B689B094FF0000440F2FF114FF00002D9
:1042B80003EA010504EA0206294632464FF00003E4
:1042C8004FF00004540144EAD1644B0119462246D8
:1042D800491B62EB06024FF000034FF00004940103
:1042E80044EA91648B015B1A64EB02044FF000010D
:1042F8004FF00002E20042EA5372D9000B4614461E
:104308005B1944EB06044FF000014FF00002620213
:1043180042EAD35259020B461446184621467B6896
:104328004FF000041A462346FBF74AFF03460C46A3
:10433800FB6049E02F4B5B689B094FF0000440F29B
:10434800FF114FF0000203EA010504EA02062946BC
:1043580032464FF000034FF00004540144EAD164A0
:104368004B0119462246491B62EB06024FF0000337
:104378004FF00004940144EA91648B015B1A64EBEA
:1043880002044FF000014FF00002E20042EA5372CB
:10439800D9000B4614465B1944EB06044FF00001A4
:1043A8004FF00002A20242EA935299020B461446C9
:1043B800184621467B684FF000041A462346FBF74F
:1043C800FFFE03460C46FB600A4B5B681B0C03F0C0
:1043D800030301335B003B60FA683B68B2FBF3F30D
:1043E800BB6002E0044BBB6000BFBB6818461437D3
:1043F800BD46F0BD003802400024F40000127A00E7
:1044080080B400AF034B1B681846BD465DF8047BBB
:10441800704700BF7000002080B489B000AF78609A
:10442800396000237B6100233B610023BB610023CB
:10443800FB616BE10122FB6902FA03F37B613B68D4
:104448001B687A6913403B613A697B699A4240F07C
:104458005A813B685B68012B0BD03B685B68022B79
:1044680007D03B685B68112B03D03B685B68122B55
:1044780030D17B689B68BB61FB695B00032202FA51
:1044880003F3DB43BA691340BB613B68DA68FB6935
:104498005B0002FA03F3BA691343BB617B68BA692C
:1044A8009A607B685B68BB610122FB6902FA03F3CF
:1044B800DB43BA691340BB613B685B681B0903F0C7
:1044C8000102FB6902FA03F3BA691343BB617B6813
:1044D800BA695A607B68DB68BB61FB695B000322D1
:1044E80002FA03F3DB43BA691340BB613B689A687D
:1044F800FB695B0002FA03F3BA691343BB617B688B
:10450800BA69DA603B685B68022B03D03B685B687A
:10451800122B23D1FB69DA087B68083253F8223062
:10452800BB61FB6903F007039B000F2202FA03F348
:10453800DB43BA691340BB613B681A69FB6903F046
:1045480007039B0002FA03F3BA691343BB61FB69D3
:10455800DA087B680832B96943F822107B681B685F
:10456800BB61FB695B00032202FA03F3DB43BA6910
:104578001340BB613B685B6803F00302FB695B00A7
:1045880002FA03F3BA691343BB617B68BA691A601C
:104598003B685B6803F08053002B00F0B480002375
:1045A800FB605F4B5B6C5E4A43F4804353645C4B37
:1045B8005B6C03F48043FB60FB685A4AFB699B0809
:1045C800023352F82330BB61FB6903F003039B00FD
:1045D8000F2202FA03F3DB43BA691340BB617B681D
:1045E800514A93422BD07B68504A934225D07B682E
:1045F8004F4A93421FD07B684E4A934219D07B683A
:104608004D4A934213D07B684C4A93420DD07B6845
:104618004B4A934207D07B684A4A934201D1072309
:104628000EE008230CE006230AE0052308E0042333
:1046380006E0032304E0022302E0012300E0002354
:10464800FA6902F0030292009340BA691343BB610E
:104658003449FB699B080233BA6941F823203A4B75
:104668001B68BB613B69DB43BA691340BB613B68AC
:104678005B6803F48033002B03D0BA693B691343AA
:10468800BB61314ABB6913602F4B5B68BB613B69F7
:10469800DB43BA691340BB613B685B6803F40033D2
:1046A800002B03D0BA693B691343BB61264ABB6937
:1046B8005360254B9B68BB613B69DB43BA69134078
:1046C800BB613B685B6803F48013002B03D0BA69B5
:1046D8003B691343BB611C4ABB6993601A4BDB6897
:1046E800BB613B69DB43BA691340BB613B685B68EC
:1046F80003F40013002B03D0BA693B691343BB6171
:10470800114ABB69D360FB690133FB61FB690F2B5D
:104718007FF690AE00BF2437BD465DF8047B704736
:104728000038024000380140000002400004024006
:1047380000080240000C0240001002400014024031
:1047480000180240001C0240003C014080B485B0C3
:1047580000AF78607B6803F00703FB600C4BDB68F5
:10476800BB60BA684FF6FF031340BB60FB681A02D0
:10477800BB68134343F0BF6343F40033BB60044A90
:10478800BB68D36000BF1437BD465DF8047B704733
:1047980000ED00E080B400AF044BDB681B0A03F0B7
:1047A80007031846BD465DF8047B704700ED00E03E
:1047B80080B483B000AF0346FB7197F90730002B34
:1047C8000BDBFB7903F01F02074997F907305B09F8
:1047D800012000FA02F241F8232000BF0C37BD4641
:1047E8005DF8047B704700BF00E100E080B483B04F
:1047F80000AF0346FB7197F90730002B10DBFB79FC
:1048080003F01F02094997F907305B09012000FAF4
:1048180002F2203341F82320BFF34F8FBFF36F8F8D
:1048280000BF0C37BD465DF8047B704700E100E02F
:1048380080B483B000AF03463960FB7197F9073045
:10484800002B0ADB3B68DAB20C4997F907301201F2
:10485800D2B20B4483F800230AE03B68DAB2084975
:10486800FB7903F00F03043B1201D2B20B441A7612
:1048780000BF0C37BD465DF8047B704700E100E0DF
:1048880000ED00E080B489B000AFF860B9607A60EC
:10489800FB6803F00703FB61FB69C3F10703042B03
:1048A80028BF0423BB61FB690433062B02D9FB69CB
:1048B800033B00E000237B614FF0FF32BB6902FA43
:1048C80003F3DA43BB681A407B699A404FF0FF3123
:1048D8007B6901FA03F3D9437B680B4013431846FD
:1048E8002437BD465DF8047B7047000080B582B070
:1048F80000AF78607B68013BB3F1807F01D301236F
:104908000FE00A4A7B68013B53600F214FF0FF30EC
:10491800FFF78EFF054B00229A60044B07221A60AE
:10492800002318460837BD4680BD00BF10E000E0F0
:1049380080B582B000AF78607868FFF707FF00BFE6
:104948000837BD4680BD80B586B000AF0346B96064
:104958007A60FB7300237B61FFF71CFF78617A683C
:10496800B9687869FFF78EFF024697F90F3011464C
:104978001846FFF75DFF00BF1837BD4680BD80B5FC
:1049880082B000AF0346FB7197F907301846FFF76E
:104998000FFF00BF0837BD4680BD80B582B000AFAD
:1049A8000346FB7197F907301846FFF71FFF00BF52
:1049B8000837BD4680BD80B582B000AF78607868A2
:1049C800FFF794FF034618460837BD4680BD000030
:1049D80080B500AF0E4B1B680D4A43F4007313609B
:1049E8000B4B1B680A4A43F480631360084B1B682F
:1049F800074A43F4807313600320FFF799FF0020F0
:104A080000F008F8FCF740FC0023184680BD00BF02
:104A1800003C024080B582B000AF7860124B1A6843
:104A2800124B1B7819464FF47A73B3FBF1F3B2FBC0
:104A3800F3F31846FFF7BFFF0346002B01D001230D
:104A48000EE07B680F2B0AD8002279684FF0FF3000
:104A5800FFF779FF064A7B681360002300E0012313
:104A680018460837BD4680BD700000206C00002045
:104A78006800002080B400AF064B1B781A46064B2E
:104A88001B681344044A136000BFBD465DF8047BED
:104A9800704700BF6C000020900B002080B400AF6E
:104AA800034B1B681846BD465DF8047B704700BF82
:104AB800900B002080B584B000AF7860FFF7EEFF60
:104AC800B8607B68FB60FB68B3F1FF3F05D0094B1A
:104AD8001B781A46FB681344FB6000BFFFF7DEFF34
:104AE8000246BB68D31AFA689A42F7D800BF103753
:104AF800BD4680BD6C00002080B400AF084BD3F8E1
:104B08008830074A43F47003C2F88830044B4FF0EA
:104B180000629A6000BFBD465DF8047B704700BF25
:104B280000ED00E080B584B000AFF860B9601346CE
:104B3800FB71FB68002B01D102231AE0FB68D3F854
:104B48008C32002B03D0FB680022C3F88C22BB6890
:104B5800002B03D0FB68BA68C3F88822FB680122DF
:104B680083F87422FB68FA791A70F868FBF7F8FE84
:104B7800002318461037BD4680BD80B485B000AF0D
:104B8800786039600023FB733B68002B06D07B6894
:104B98003A68C3F88C220023FB7301E00223FB73FD
:104BA800FB7B18461437BD465DF8047B704780B51B
:104BB80082B000AF78607868FBF71EFF00231846C4
:104BC8000837BD4680BD80B483B000AF786000234D
:104BD80018460C37BD465DF8047B704780B584B035
:104BE80000AF78600B46FB700223FB737B68D3F839
:104BF8008C32002B0CD07B68D3F88C321B68FA7887
:104C08001146786898470346002B01D10023FB73AF
:104C1800FB7B18461037BD4680BD80B582B000AF1B
:104C280078600B46FB707B68D3F88C325B68FA7847
:104C3800114678689847002318460837BD4680BD56
:104C480080B582B000AF786039607B6803F5207367
:104C58003968184600F094FE7B680122C3F86C227C
:104C68007B68B3F886321A467B68C3F870227B6883
:104C780093F8803203F01F03012B0CD0012B02D3D1
:104C8800022B10D017E07B6803F52073194678686B
:104C980000F004FA1AE07B6803F520731946786877
:104CA80000F066FA12E07B6803F52073194678680D
:104CB80000F0A4FA0AE07B6893F8803223F07F03BF
:104CC800DBB219467868FBF7F7FE00BF00231846E9
:104CD8000837BD4680BD80B586B000AFF8600B468A
:104CE8007A60FB72FB7A002B4BD1FB6803F5A0734B
:104CF8007B61FB68D3F86C32032B34D17B69DA68AB
:104D08007B691B699A4219D97B69DA687B691B69D7
:104D1800D21A7B69DA607B69DA687B691B699A4217
:104D280003D27B69DB689BB202E07B691B699BB29B
:104D38001A467968F86800F017FF38E0FB68D3F87E
:104D48008C321B69002B0AD0FB6893F87432032B52
:104D580005D1FB68D3F88C321B69F8689847F86866
:104D680000F014FF23E0FB68D3F86C32052B1ED14A
:104D7800FB680022C3F86C220021F868FBF79CFE50
:104D880015E0FB68D3F88C329B69002B0DD0FB68CB
:104D980093F87432032B08D1FB68D3F88C329B69E3
:104DA800FA7A1146F868984701E0022300E00023E8
:104DB80018461837BD4680BD80B586B000AFF8608C
:104DC8000B467A60FB72FB7A002B7FD1FB681433A9
:104DD8007B61FB68D3F86C32022B5CD17B69DA68A3
:104DE8007B691B699A4215D97B69DA687B691B69FB
:104DF800D21A7B69DA607B69DB689BB21A467968EC
:104E0800F86800F081FE002300220021F868FBF713
:104E1800FFFE4EE07B699B687A691269B3FBF2F189
:104E280002FB01F29B1A002B1CD17B699A687B69F3
:104E38001B699A4216D37B699A68FB68D3F870326B
:104E48009A420FD200220021F86800F05DFEFB684C
:104E58000022C3F87022002300220021F868FBF723
:104E6800D7FE26E0FB68D3F88C32DB68002B0AD02B
:104E7800FB6893F87432032B05D1FB68D3F88C32A6
:104E8800DB68F86898478021F868FBF715FEF86832
:104E980000F08FFE0DE0FB68D3F86C32042B04D0D1
:104EA800FB68D3F86C32002B03D18021F868FBF73C
:104EB80003FEFB6893F87832012B1DD1F868FFF7E1
:104EC80082FEFB68002283F8782215E0FB68D3F89D
:104ED8008C325B69002B0DD0FB6893F87432032B7E
:104EE80008D1FB68D3F88C325B69FA7A1146F86806
:104EF800984701E0022300E0002318461837BD4612
:104F080080BD80B582B000AF7860402300220021C8
:104F18007868FBF78CFD7B680122C3F844217B6825
:104F28004022C3F850214023002280217868FBF7F3
:104F38007EFD7B6801229A617B6840225A627B6809
:104F4800012283F874227B680022C3F86C227B68F4
:104F580000225A607B680022C3F87C227B68D3F861
:104F68009032002B09D07B68D3F88C325B687A6862
:104F78005268D2B211467868984700231846083715
:104F8800BD4680BD80B483B000AF78600B46FB702F
:104F98007B68FA781A74002318460C37BD465DF80A
:104FA800047B704780B483B000AF78607B6893F867
:104FB80074227B6883F875227B68042283F8742244
:104FC800002318460C37BD465DF8047B704780B453
:104FD80083B000AF78607B6893F875227B6883F8AC
:104FE8007422002318460C37BD465DF8047B7047D1
:104FF80080B582B000AF78607B6893F87432032B79
:105008000BD17B68D3F88C32DB69002B05D07B6829
:10501800D3F88C32DB69786898470023184608373C
:10502800BD4680BD80B483B000AF78600B46FB708E
:10503800002318460C37BD465DF8047B704780B4E2
:1050480083B000AF78600B46FB70002318460C371E
:10505800BD465DF8047B704780B483B000AF7860CC
:10506800002318460C37BD465DF8047B704780B5B1
:1050780082B000AF78607B68012283F874227B6875
:10508800D3F88C325B687A685268D2B21146786875
:105098009847002318460837BD4680BD80B584B0C0
:1050A80000AF786039600023FB733B681B7803F01E
:1050B8006003202B04D0402B02D0002B08D04CE0FA
:1050C8007B68D3F88C329B6839687868984749E0E0
:1050D8003B685B78092B3AD801A252F823F000BF4D
:1050E800395100084D510008575100084351000834
:1050F800575100081B51000811510008575100086A
:105108002F510008255100083968786800F0D2F955
:1051180022E03968786800F0C7FA1DE039687868D5
:1051280000F004FB18E03968786800F08DFB13E0A4
:105138003968786800F0BCFB0EE03968786800F0E0
:10514800EAFB09E03968786800F0F9FB04E039689F
:10515800786800F052FC00BF04E03968786800F015
:105168004CFC00BFFB7B18461037BD4680BD00BF16
:1051780080B584B000AF786039600023FB733B686A
:105188001B7803F06003202B03D0402B01D0002BA9
:105198002AD17B6893F87432013B022B1DD83B68F7
:1051A8009B88DBB2012B13D87B68D3F88C329B68C1
:1051B8003968786898470346FB733B68DB88002B9F
:1051C80010D1FB7B002B0DD1786800F0DFFC09E0E3
:1051D8003968786800F011FC04E03968786800F0F4
:1051E8000CFC00E000BF04E03968786800F005FCBA
:1051F80000BF002318461037BD4680BD80B584B077
:1052080000AF786039600023FB733B689B88BB73F1
:105218003B681B7803F06003202B04D0402B02D09E
:10522800002B08D03BE17B68D3F88C329B68396847
:105238007868984738E13B681B7803F06003202BB7
:105248000AD17B68D3F88C329B68396878689847AC
:105258000346FB73FB7B28E13B685B78012B3ED060
:10526800032B02D0002B70D013E17B6893F87432C3
:10527800022B02D0032B15D02BE0BB7B002B0CD0CC
:10528800BB7B802B09D0BB7B19467868FBF714FCE5
:1052980080217868FBF710FC20E03968786800F016
:1052A800ACFB1BE03B685B88002B0ED1BB7B002B63
:1052B8000BD0BB7B802B08D03B68DB88002B04D14C
:1052C800BB7B19467868FBF7F7FB786800F05EFC53
:1052D80004E03968786800F090FB00BFDEE07B6886
:1052E80093F87432022B02D0032B15D026E0BB7B37
:1052F800002B0CD0BB7B802B09D0BB7B1946786870
:10530800FBF7DAFB80217868FBF7D6FB1CE03968ED
:10531800786800F072FB17E03B685B88002B12D1BD
:10532800BB7B03F07F03002B04D0BB7B1946786856
:10533800FBF7E1FB786800F029FC04E0396878683D
:1053480000F05BFB00E000BFA8E07B6893F87432D4
:10535800022B02D0032B31D095E0BB7B002B07D06A
:10536800BB7B802B04D03968786800F046FB8FE05F
:1053780097F90E30002B0BDABB7B03F07F02134644
:105388009B0013449B0010337A68134404330AE0EB
:10539800BB7B03F07F0213469B0013449B0003F57D
:1053A800A0737A681344BB60BB6800221A60BB68AC
:1053B80002221946786800F08BFB69E097F90E30F5
:1053C800002B11DABB7B03F00F02796813469B00B0
:1053D80013449B000B4418331B68002B17D1396802
:1053E800786800F00AFB53E0BB7B03F00F02796892
:1053F80013469B0013449B000B4403F5A2731B68E0
:10540800002B04D13968786800F0F7FA40E097F982
:105418000E30002B0BDABB7B03F07F0213469B0098
:1054280013449B0010337A68134404330AE0BB7BAF
:1054380003F07F0213469B0013449B0003F5A073FF
:105448007A681344BB60BB7B002B02D0BB7B802BEC
:1054580003D1BB6800221A600EE0BB7B194678684E
:10546800FBF768FB0346002B03D0BB6801221A60D8
:1054780002E0BB6800221A60BB68022219467868FD
:1054880000F026FB04E03968786800F0B6FA00BF3F
:1054980004E03968786800F0B0FA00BF04E03968C1
:1054A800786800F0AAFA00BFFB7B18461037BD46A3
:1054B80080BD000080B584B000AF786039603B687B
:1054C8005B881B0A9BB2013B062B00F2C98001A234
:1054D80052F823F0F95400081155000851550008F6
:1054E8006956000869560008155600083B5600081A
:1054F8007B68D3F888321B687A68127C07F10A0146
:1055080010469847F860B0E07B681B7C002B0DD1F3
:105518007B68D3F88C329B6A07F10A0210469847D9
:10552800F860FB68013302221A709EE07B68D3F8AA
:105538008C32DB6A07F10A0210469847F860FB686C
:10554800013302221A7090E03B685B88DBB2052BBE
:1055580056D801A252F823F0795500089155000851
:10556800A9550008C1550008D9550008F15500088B
:105578007B68D3F888325B687A68127C07F10A0185
:1055880010469847F86040E07B68D3F888329B68FB
:105598007A68127C07F10A0110469847F86034E0EF
:1055A8007B68D3F88832DB687A68127C07F10A01D5
:1055B80010469847F86028E07B68D3F888321B6962
:1055C8007A68127C07F10A0110469847F8601CE0D7
:1055D8007B68D3F888325B697A68127C07F10A0124
:1055E80010469847F86010E07B68D3F888329B69CA
:1055F8007A68127C07F10A0110469847F86004E0BF
:105608003968786800F0F9F94BE02EE07B681B7C7C
:10561800002B09D17B68D3F88C325B6B07F10A0247
:1056280010469847F86020E03968786800F0E5F996
:1056380037E07B681B7C002B0DD17B68D3F88C325C
:105648001B6B07F10A0210469847F860FB680133A4
:1056580007221A7009E03968786800F0CEF920E06E
:105668003968786800F0C9F91BE07B89002B11D0F4
:105678003B68DB88002B0DD03B68DA887B89934236
:1056880028BF13469BB27B817B891A46F9687868E4
:1056980000F01EFA3B68DB88002B02D1786800F026
:1056A80075FA1037BD4680BD80B584B000AF78600C
:1056B80039603B689B88002B30D13B68DB88002B26
:1056C8002CD13B685B887F2B28D83B685B88DBB292
:1056D80003F07F03FB737B6893F87432032B04D1C8
:1056E8003968786800F089F91CE07B68FA7B83F8F0
:1056F8007622FB7B19467868FBF748FA786800F051
:1057080045FAFB7B002B04D07B68022283F87422C5
:1057180008E07B68012283F8742203E0396878681E
:1057280000F06BF900BF1037BD4680BD80B582B070
:1057380000AF786039603B685B88DAB2414B1A7019
:10574800404B1B78012B04D93968786800F055F96B
:1057580075E07B6893F87432022B02D0032B23D0B8
:1057680062E0384B1B78002B1AD0364B1B781A4650
:105778007B685A607B68032283F87422314B1B785C
:1057880019467868FFF72AFA0346022B04D13968CC
:10579800786800F032F952E0786800F0F7F94EE0E6
:1057A800786800F0F3F94AE0264B1B78002B12D1F9
:1057B8007B68022283F87422224B1B781A467B6886
:1057C8005A60204B1B7819467868FFF726FA7868E4
:1057D80000F0DCF933E01B4B1B781A467B685B68EA
:1057E8009A421DD07B685B68DBB219467868FFF780
:1057F80014FA144B1B781A467B685A60114B1B78B5
:1058080019467868FFF7EAF90346022B04D139688C
:10581800786800F0F2F812E0786800F0B7F90EE066
:10582800786800F0B3F90AE03968786800F0E5F8BC
:10583800044B1B7819467868FFF7EFF900BF083763
:10584800BD4680BD4002002080B582B000AF7860C0
:1058580039603B68DB88012B04D03968786800F030
:10586800CCF821E07B6893F87432012B17DB022B0C
:1058780002DD032B0BD012E07B6800229A607B6864
:10588800083301221946786800F022F90CE07B6899
:10589800043301221946786800F01AF904E03968DF
:1058A800786800F0AAF800BF00BF0837BD4680BD81
:1058B80080B582B000AF786039607B6893F8743245
:1058C800013B022B1ED83B68DB88022B04D03968C9
:1058D800786800F092F81AE07B680122DA607B6849
:1058E800D3F87C32002B05D07B68DB6843F00202DA
:1058F8007B68DA607B680C3302221946786800F00E
:10590800E7F804E03968786800F077F800BF00BF6E
:105918000837BD4680BD80B582B000AF7860396079
:105928003B685B88012B06D17B680122C3F87C2287
:10593800786800F02BF900BF0837BD4680BD80B5F8
:1059480082B000AF786039607B6893F87432013BAD
:10595800022B0BD83B685B88012B0CD17B6800229B
:10596800C3F87C22786800F011F904E03968786897
:1059780000F043F800E000BF00BF0837BD4680BD17
:1059880080B483B000AF786039603B681A787B6870
:105998001A703B685A787B685A703B6802331B78E8
:1059A8009AB23B6803331B789BB21B029BB2134429
:1059B8009AB27B685A803B6804331B789AB23B687A
:1059C80005331B789BB21B029BB213449AB27B68C7
:1059D8009A803B6806331B789AB23B6807331B787A
:1059E8009BB21B029BB213449AB27B68DA8000BF59
:1059F8000C37BD465DF8047B704780B582B000AFB8
:105A08007860396080217868FBF756F8002178685B
:105A1800FBF752F800BF0837BD4680BD80B586B099
:105A280000AFF860B9607A600023FB75FB68002B53
:105A380032D0F86800F034F8034601339BB25B00BB
:105A48009AB27B681A80FB7D5A1CFA751A46BB68A5
:105A580013447A6812781A70FB7D5A1CFA751A4634
:105A6800BB68134403221A7012E0FB685A1CFA60E0
:105A7800FA7D511CF9751146BA680A441B781370EF
:105A8800FB7D5A1CFA751A46BB68134400221A702B
:105A9800FB681B78002BE8D100BF1837BD4680BDD6
:105AA80080B485B000AF78600023FB7305E0FB7B12
:105AB8000133FB737B6801337B607B681B78002BA9
:105AC800F5D1FB7B18461437BD465DF8047B70475B
